{
	"data": {
		"bytecode": {
			"linkReferences": {},
			"object": "6080604052348015600e575f5ffd5b503360065f6101000a81548173ffffffffffffffffffffffffffffffffffffffff021916908373ffffffffffffffffffffffffffffffffffffffff1602179055505f6001819055505f60078190555061363e8061006a5f395ff3fe6080604052600436106100aa575f3560e01c80637efeb94a116100635780637efeb94a146101e35780639696e8301461020d578063a5d10abb14610229578063a6f9dae114610251578063bafdb1c014610279578063d7a8e87b146102b5576100ab565b806312571f63146100ad5780632303ecf7146100e95780632cfc4311146101255780634cf7c7411461014157806378a03c471461017d578063796b89b9146101b9576100ab565b5b005b3480156100b8575f5ffd5b506100d360048036038101906100ce9190611fce565b6102df565b6040516100e09190612075565b60405180910390f35b3480156100f4575f5ffd5b5061010f600480360381019061010a9190611fce565b610566565b60405161011c91906120d4565b60405180910390f35b61013f600480360381019061013a9190612120565b610aef565b005b34801561014c575f5ffd5b5061016760048036038101906101629190611fce565b610c91565b60405161017491906120d4565b60405180910390f35b348015610188575f5ffd5b506101a3600480360381019061019e91906121a4565b610de1565b6040516101b09190612075565b60405180910390f35b3480156101c4575f5ffd5b506101cd611194565b6040516101da91906121de565b60405180910390f35b3480156101ee575f5ffd5b506101f761119b565b60405161020491906121de565b60405180910390f35b61022760048036038101906102229190611fce565b6111a1565b005b348015610234575f5ffd5b5061024f600480360381019061024a91906121f7565b61155a565b005b34801561025c575f5ffd5b50610277600480360381019061027291906121a4565b6116f3565b005b348015610284575f5ffd5b5061029f600480360381019061029a9190611fce565b611854565b6040516102ac919061224f565b60405180910390f35b3480156102c0575f5ffd5b506102c961188a565b6040516102d691906121de565b60405180910390f35b60606102ea82611893565b826040516020016102fb91906122ee565b6040516020818303038152906040529061034b576040517f08c379a00000000000000000000000000000000000000000000000000000000081526004016103429190612075565b60405180910390fd5b505f600160028460405161035f9190612322565b9081526020016040518091039020546103789190612365565b9050425f5f8381526020019081526020015f2060030154111580156103fc57505f73ffffffffffffffffffffffffffffffffffffffff165f5f8381526020019081526020015f206004015f015f9054906101000a900473ffffffffffffffffffffffffffffffffffffffff1673ffffffffffffffffffffffffffffffffffffffff16145b1561040c5761040a83610566565b505b5f5f5f8381526020019081526020015f205f0161043b5f5f8581526020019081526020015f20600201546118bd565b60405160200161044c9291906124f9565b6040516020818303038152906040529050425f5f8481526020019081526020015f206003015411156104be57806104955f5f8581526020019081526020015f20600301546118bd565b6040516020016104a692919061256f565b60405160208183030381529060405292505050610561565b806104fc5f5f8581526020019081526020015f206004015f015f9054906101000a900473ffffffffffffffffffffffffffffffffffffffff16611987565b61051b5f5f8681526020019081526020015f20600401600101546119b4565b61053a5f5f8781526020019081526020015f20600401600201546118bd565b60405160200161054d9493929190612622565b604051602081830303815290604052925050505b919050565b5f61057082611893565b8260405160200161058191906122ee565b604051602081830303815290604052906105d1576040517f08c379a00000000000000000000000000000000000000000000000000000000081526004016105c89190612075565b60405180910390fd5b505f60016002846040516105e59190612322565b9081526020016040518091039020546105fe9190612365565b90505f73ffffffffffffffffffffffffffffffffffffffff165f5f8381526020019081526020015f206004015f015f9054906101000a900473ffffffffffffffffffffffffffffffffffffffff1673ffffffffffffffffffffffffffffffffffffffff16146106a05f5f8481526020019081526020015f206004015f015f9054906101000a900473ffffffffffffffffffffffffffffffffffffffff16611987565b6040516020016106b091906126df565b60405160208183030381529060405290610700576040517f08c379a00000000000000000000000000000000000000000000000000000000081526004016106f79190612075565b60405180910390fd5b505f5f8281526020019081526020015f20600301544210156107345f5f8481526020019081526020015f20600301546118bd565b6040516020016107449190612774565b60405160208183030381529060405290610794576040517f08c379a000000000000000000000000000000000000000000000000000000000815260040161078b9190612075565b60405180910390fd5b505f6107b55f5f8481526020019081526020015f20600101805490506119d2565b90505f5f5f8481526020019081526020015f2060010182815481106107dd576107dc612795565b5b905f5260205f2090600302016001015460026107f991906127c2565b9050805f5f8581526020019081526020015f2060020154101561082d575f5f8481526020019081526020015f206002015490505b5f5f8481526020019081526020015f20600101828154811061085257610851612795565b5b905f5260205f2090600302015f015f9054906101000a900473ffffffffffffffffffffffffffffffffffffffff165f5f8581526020019081526020015f206004015f015f6101000a81548173ffffffffffffffffffffffffffffffffffffffff021916908373ffffffffffffffffffffffffffffffffffffffff160217905550805f5f8581526020019081526020015f2060040160010181905550425f5f8581526020019081526020015f2060040160020181905550805f5f8581526020019081526020015f20600201546109279190612365565b60075f8282546109379190612803565b925050819055505f5f5f8581526020019081526020015f206004015f015f9054906101000a900473ffffffffffffffffffffffffffffffffffffffff1673ffffffffffffffffffffffffffffffffffffffff168260405161099790612863565b5f6040518083038185875af1925050503d805f81146109d1576040519150601f19603f3d011682016040523d82523d5f602084013e6109d6565b606091505b5050905080610a1a576040517f08c379a0000000000000000000000000000000000000000000000000000000008152600401610a11906128e7565b60405180910390fd5b60055f5f5f8781526020019081526020015f206004015f015f9054906101000a900473ffffffffffffffffffffffffffffffffffffffff1673ffffffffffffffffffffffffffffffffffffffff1673ffffffffffffffffffffffffffffffffffffffff1681526020019081526020015f2084908060018154018082558091505060019003905f5260205f20015f90919091909150555f5f8581526020019081526020015f206004015f015f9054906101000a900473ffffffffffffffffffffffffffffffffffffffff16945050505050919050565b610af882611854565b610b37576040517f08c379a0000000000000000000000000000000000000000000000000000000008152600401610b2e90612975565b60405180910390fd5b6104b042610b459190612803565b8111610b526104b06118bd565b604051602001610b629190612a29565b60405160208183030381529060405290610bb2576040517f08c379a0000000000000000000000000000000000000000000000000000000008152600401610ba99190612075565b60405180910390fd5b505f5f5f60015481526020019081526020015f20905082815f019081610bd89190612be7565b505f81600201819055508181600301819055505f816004015f015f6101000a81548173ffffffffffffffffffffffffffffffffffffffff021916908373ffffffffffffffffffffffffffffffffffffffff1602179055505f81600401600101819055505f816004016002018190555060015f815480929190610c5990612cb6565b9190505550600154600284604051610c719190612322565b908152602001604051809103902081905550610c8c836111a1565b505050565b5f610c9b82611893565b82604051602001610cac91906122ee565b60405160208183030381529060405290610cfc576040517f08c379a0000000000000000000000000000000000000000000000000000000008152600401610cf39190612075565b60405180910390fd5b505f6001600284604051610d109190612322565b908152602001604051809103902054610d299190612365565b90505f73ffffffffffffffffffffffffffffffffffffffff165f5f8381526020019081526020015f206004015f015f9054906101000a900473ffffffffffffffffffffffffffffffffffffffff1673ffffffffffffffffffffffffffffffffffffffff1614610dcf575f5f8281526020019081526020015f206004015f015f9054906101000a900473ffffffffffffffffffffffffffffffffffffffff16915050610ddc565b610dd883610566565b9150505b919050565b60605f60035f8473ffffffffffffffffffffffffffffffffffffffff1673ffffffffffffffffffffffffffffffffffffffff1681526020019081526020015f208054905090505f8111610e69576040517f08c379a0000000000000000000000000000000000000000000000000000000008152600401610e6090612d47565b60405180910390fd5b5f6040518060400160405280601681526020017f50617274696369706174696f6e5f486973746f72793a0000000000000000000081525090505f5f90505b82811015610ffb575f60035f8773ffffffffffffffffffffffffffffffffffffffff1673ffffffffffffffffffffffffffffffffffffffff1681526020019081526020015f208281548110610eff57610efe612795565b5b905f5260205f20015490505f600160045f8973ffffffffffffffffffffffffffffffffffffffff1673ffffffffffffffffffffffffffffffffffffffff1681526020019081526020015f205f8481526020019081526020015f2054610f649190612365565b90505f5f5f8481526020019081526020015f206001018281548110610f8c57610f8b612795565b5b905f5260205f209060030201905084610fa882600201546118bd565b610fb583600101546118bd565b5f5f8781526020019081526020015f205f01604051602001610fda9493929190612e23565b60405160208183030381529060405294505050508080600101915050610ea7565b508060405160200161100d9190612eef565b60405160208183030381529060405290505f60055f8673ffffffffffffffffffffffffffffffffffffffff1673ffffffffffffffffffffffffffffffffffffffff1681526020019081526020015f20805490500361108c57806040516020016110769190612f49565b604051602081830303815290604052905061118a565b5f5f90505b60055f8673ffffffffffffffffffffffffffffffffffffffff1673ffffffffffffffffffffffffffffffffffffffff1681526020019081526020015f2080549050811015611188575f5f5f60055f8973ffffffffffffffffffffffffffffffffffffffff1673ffffffffffffffffffffffffffffffffffffffff1681526020019081526020015f20848154811061112b5761112a612795565b5b905f5260205f20015481526020019081526020015f2090508261115482600401600101546118bd565b825f0160405160200161116993929190612fa3565b6040516020818303038152906040529250508080600101915050611091565b505b8092505050919050565b5f42905090565b6104b081565b5f34116111e3576040517f08c379a00000000000000000000000000000000000000000000000000000000081526004016111da9061308e565b60405180910390fd5b6111ec81611893565b816040516020016111fd91906122ee565b6040516020818303038152906040529061124d576040517f08c379a00000000000000000000000000000000000000000000000000000000081526004016112449190612075565b60405180910390fd5b505f60016002836040516112619190612322565b90815260200160405180910390205461127a9190612365565b90505f5f8281526020019081526020015f206003015442106040516020016112a19061311c565b604051602081830303815290604052906112f1576040517f08c379a00000000000000000000000000000000000000000000000000000000081526004016112e89190612075565b60405180910390fd5b505f60045f3373ffffffffffffffffffffffffffffffffffffffff1673ffffffffffffffffffffffffffffffffffffffff1681526020019081526020015f205f8381526020019081526020015f205414604051602001611350906131c6565b604051602081830303815290604052906113a0576040517f08c379a00000000000000000000000000000000000000000000000000000000081526004016113979190612075565b60405180910390fd5b505f5f8281526020019081526020015f2060010160405180606001604052803373ffffffffffffffffffffffffffffffffffffffff16815260200134815260200142815250908060018154018082558091505060019003905f5260205f2090600302015f909190919091505f820151815f015f6101000a81548173ffffffffffffffffffffffffffffffffffffffff021916908373ffffffffffffffffffffffffffffffffffffffff16021790555060208201518160010155604082015181600201555050345f5f8381526020019081526020015f206002015f8282546114879190612803565b9250508190555060035f3373ffffffffffffffffffffffffffffffffffffffff1673ffffffffffffffffffffffffffffffffffffffff1681526020019081526020015f2081908060018154018082558091505060019003905f5260205f20015f90919091909150555f5f8281526020019081526020015f206001018054905060045f3373ffffffffffffffffffffffffffffffffffffffff1673ffffffffffffffffffffffffffffffffffffffff1681526020019081526020015f205f8381526020019081526020015f20819055505050565b60065f9054906101000a900473ffffffffffffffffffffffffffffffffffffffff1673ffffffffffffffffffffffffffffffffffffffff163373ffffffffffffffffffffffffffffffffffffffff16146115e9576040517f08c379a00000000000000000000000000000000000000000000000000000000081526004016115e09061324a565b60405180910390fd5b60075482111561162e576040517f08c379a0000000000000000000000000000000000000000000000000000000008152600401611625906132b2565b60405180910390fd5b8160075f82825461163f9190612365565b925050819055505f8173ffffffffffffffffffffffffffffffffffffffff168360405161166b90612863565b5f6040518083038185875af1925050503d805f81146116a5576040519150601f19603f3d011682016040523d82523d5f602084013e6116aa565b606091505b50509050806116ee576040517f08c379a00000000000000000000000000000000000000000000000000000000081526004016116e590613340565b60405180910390fd5b505050565b60065f9054906101000a900473ffffffffffffffffffffffffffffffffffffffff1673ffffffffffffffffffffffffffffffffffffffff163373ffffffffffffffffffffffffffffffffffffffff1614611782576040517f08c379a0000000000000000000000000000000000000000000000000000000008152600401611779906133ce565b60405180910390fd5b60065f9054906101000a900473ffffffffffffffffffffffffffffffffffffffff1673ffffffffffffffffffffffffffffffffffffffff168173ffffffffffffffffffffffffffffffffffffffff1603611811576040517f08c379a000000000000000000000000000000000000000000000000000000000815260040161180890613436565b60405180910390fd5b8060065f6101000a81548173ffffffffffffffffffffffffffffffffffffffff021916908373ffffffffffffffffffffffffffffffffffffffff16021790555050565b5f5f6002836040516118669190612322565b90815260200160405180910390205414801561188357505f825114155b9050919050565b5f600754905090565b5f5f6002836040516118a59190612322565b90815260200160405180910390205414159050919050565b60605f60016118cb84611a59565b0190505f8167ffffffffffffffff8111156118e9576118e8611eaa565b5b6040519080825280601f01601f19166020018201604052801561191b5781602001600182028036833780820191505090505b5090505f82602083010190505b60011561197c578080600190039150507f3031323334353637383961626364656600000000000000000000000000000000600a86061a8153600a858161197157611970613454565b5b0494505f8503611928575b819350505050919050565b60606119ad8273ffffffffffffffffffffffffffffffffffffffff16601460ff16611baa565b9050919050565b60606119cb8260016119c585611de8565b01611baa565b9050919050565b5f5f8211611a15576040517f08c379a0000000000000000000000000000000000000000000000000000000008152600401611a0c906134cb565b60405180910390fd5b5f444233604051602001611a2b9392919061354e565b604051602081830303815290604052805190602001205f1c90508281611a51919061358a565b915050919050565b5f5f5f90507a184f03e93ff9f4daa797ed6e38ed64bf6a1f0100000000000000008310611ab5577a184f03e93ff9f4daa797ed6e38ed64bf6a1f0100000000000000008381611aab57611aaa613454565b5b0492506040810190505b6d04ee2d6d415b85acef81000000008310611af2576d04ee2d6d415b85acef81000000008381611ae857611ae7613454565b5b0492506020810190505b662386f26fc100008310611b2157662386f26fc100008381611b1757611b16613454565b5b0492506010810190505b6305f5e1008310611b4a576305f5e1008381611b4057611b3f613454565b5b0492506008810190505b6127108310611b6f576127108381611b6557611b64613454565b5b0492506004810190505b60648310611b925760648381611b8857611b87613454565b5b0492506002810190505b600a8310611ba1576001810190505b80915050919050565b60605f8390505f6002846002611bc091906127c2565b611bca9190612803565b67ffffffffffffffff811115611be357611be2611eaa565b5b6040519080825280601f01601f191660200182016040528015611c155781602001600182028036833780820191505090505b5090507f3000000000000000000000000000000000000000000000000000000000000000815f81518110611c4c57611c4b612795565b5b60200101907effffffffffffffffffffffffffffffffffffffffffffffffffffffffffffff191690815f1a9053507f780000000000000000000000000000000000000000000000000000000000000081600181518110611caf57611cae612795565b5b60200101907effffffffffffffffffffffffffffffffffffffffffffffffffffffffffffff191690815f1a9053505f6001856002611ced91906127c2565b611cf79190612803565b90505b6001811115611d96577f3031323334353637383961626364656600000000000000000000000000000000600f841660108110611d3957611d38612795565b5b1a60f81b828281518110611d5057611d4f612795565b5b60200101907effffffffffffffffffffffffffffffffffffffffffffffffffffffffffffff191690815f1a905350600483901c925080611d8f906135ba565b9050611cfa565b505f8214611ddd5784846040517fe22e27eb000000000000000000000000000000000000000000000000000000008152600401611dd49291906135e1565b60405180910390fd5b809250505092915050565b5f6007611e066fffffffffffffffffffffffffffffffff8411611e76565b901b90506006611e2267ffffffffffffffff8385901c11611e76565b901b811790506005611e3c63ffffffff8385901c11611e76565b901b811790506004611e5461ffff8385901c11611e76565b901b81179050611e6960ff8284901c11611e76565b600382901c179050919050565b5f8115159050919050565b5f604051905090565b5f5ffd5b5f5ffd5b5f5ffd5b5f5ffd5b5f601f19601f8301169050919050565b7f4e487b71000000000000000000000000000000000000000000000000000000005f52604160045260245ffd5b611ee082611e9a565b810181811067ffffffffffffffff82111715611eff57611efe611eaa565b5b80604052505050565b5f611f11611e81565b9050611f1d8282611ed7565b919050565b5f67ffffffffffffffff821115611f3c57611f3b611eaa565b5b611f4582611e9a565b9050602081019050919050565b828183375f83830152505050565b5f611f72611f6d84611f22565b611f08565b905082815260208101848484011115611f8e57611f8d611e96565b5b611f99848285611f52565b509392505050565b5f82601f830112611fb557611fb4611e92565b5b8135611fc5848260208601611f60565b91505092915050565b5f60208284031215611fe357611fe2611e8a565b5b5f82013567ffffffffffffffff81111561200057611fff611e8e565b5b61200c84828501611fa1565b91505092915050565b5f81519050919050565b5f82825260208201905092915050565b8281835e5f83830152505050565b5f61204782612015565b612051818561201f565b935061206181856020860161202f565b61206a81611e9a565b840191505092915050565b5f6020820190508181035f83015261208d818461203d565b905092915050565b5f73ffffffffffffffffffffffffffffffffffffffff82169050919050565b5f6120be82612095565b9050919050565b6120ce816120b4565b82525050565b5f6020820190506120e75f8301846120c5565b92915050565b5f819050919050565b6120ff816120ed565b8114612109575f5ffd5b50565b5f8135905061211a816120f6565b92915050565b5f5f6040838503121561213657612135611e8a565b5b5f83013567ffffffffffffffff81111561215357612152611e8e565b5b61215f85828601611fa1565b92505060206121708582860161210c565b9150509250929050565b612183816120b4565b811461218d575f5ffd5b50565b5f8135905061219e8161217a565b92915050565b5f602082840312156121b9576121b8611e8a565b5b5f6121c684828501612190565b91505092915050565b6121d8816120ed565b82525050565b5f6020820190506121f15f8301846121cf565b92915050565b5f5f6040838503121561220d5761220c611e8a565b5b5f61221a8582860161210c565b925050602061222b85828601612190565b9150509250929050565b5f8115159050919050565b61224981612235565b82525050565b5f6020820190506122625f830184612240565b92915050565b7f4c6f74746572792077697468206e616d65200000000000000000000000000000815250565b5f81905092915050565b5f6122a282612015565b6122ac818561228e565b93506122bc81856020860161202f565b80840191505092915050565b7f20646f6573206e6f742065786973740000000000000000000000000000000000815250565b5f6122f882612268565b6012820191506123088284612298565b9150612313826122c8565b600f8201915081905092915050565b5f61232d8284612298565b915081905092915050565b7f4e487b71000000000000000000000000000000000000000000000000000000005f52601160045260245ffd5b5f61236f826120ed565b915061237a836120ed565b925082820390508181111561239257612391612338565b5b92915050565b7f4e616d653a200000000000000000000000000000000000000000000000000000815250565b7f4e487b71000000000000000000000000000000000000000000000000000000005f52602260045260245ffd5b5f600282049050600182168061240257607f821691505b602082108103612415576124146123be565b5b50919050565b5f819050815f5260205f209050919050565b5f8154612439816123eb565b612443818661228e565b9450600182165f811461245d5760018114612472576124a4565b60ff19831686528115158202860193506124a4565b61247b8561241b565b5f5b8381101561249c5781548189015260018201915060208101905061247d565b838801955050505b50505092915050565b7f20202d2d20200000000000000000000000000000000000000000000000000000815250565b7f56616c75653a2000000000000000000000000000000000000000000000000000815250565b5f61250382612398565b600682019150612513828561242d565b915061251e826124ad565b60068201915061252d826124d3565b60078201915061253d8284612298565b91508190509392505050565b7f526573756c745f456c69676962696c6974795f54696d657374616d703a000000815250565b5f61257a8285612298565b9150612585826124ad565b60068201915061259482612549565b601d820191506125a48284612298565b91508190509392505050565b7f57696e6e65723a00000000000000000000000000000000000000000000000000815250565b7f57696e6e696e675f416d6f756e743a0000000000000000000000000000000000815250565b7f526573756c745f4465636c617265645f41745f54696d657374616d7000000000815250565b5f61262d8287612298565b9150612638826124ad565b600682019150612647826125b0565b6007820191506126578286612298565b9150612662826124ad565b600682019150612671826125d6565b600f820191506126818285612298565b915061268c826124ad565b60068201915061269b826125fc565b601c820191506126ab8284612298565b915081905095945050505050565b7f57696e6e657220616c7265616479206465636c6172656420746f206265200000815250565b5f6126e9826126b9565b601e820191506126f98284612298565b915081905092915050565b7f4e6f7420616c6c6f77656420746f206465636c6172652077696e6e65722062655f8201527f666f72652074696d657374616d70200000000000000000000000000000000000602082015250565b5f61275e602f8361228e565b915061276982612704565b602f82019050919050565b5f61277e82612752565b915061278a8284612298565b915081905092915050565b7f4e487b71000000000000000000000000000000000000000000000000000000005f52603260045260245ffd5b5f6127cc826120ed565b91506127d7836120ed565b92508282026127e5816120ed565b915082820484148315176127fc576127fb612338565b5b5092915050565b5f61280d826120ed565b9150612818836120ed565b92508282019050808211156128305761282f612338565b5b92915050565b5f81905092915050565b50565b5f61284e5f83612836565b915061285982612840565b5f82019050919050565b5f61286d82612843565b9150819050919050565b7f4661696c656420746f2073656e64207468652077696e6e696e6720616d6f756e5f8201527f7420746f2057696e6e65722d4164647265737300000000000000000000000000602082015250565b5f6128d160338361201f565b91506128dc82612877565b604082019050919050565b5f6020820190508181035f8301526128fe816128c5565b9050919050565b7f506c656173652063686f6f7365206120756e6971756520286e6f6e2d656d70745f8201527f7929206e616d6520666f7220746865206c6f7474657279000000000000000000602082015250565b5f61295f60378361201f565b915061296a82612905565b604082019050919050565b5f6020820190508181035f83015261298c81612953565b9050919050565b7f526573756c742d456c69676962696c6974792d54696d657374616d70206d75735f8201527f742062652061746c656173742000000000000000000000000000000000000000602082015250565b5f6129ed602d8361228e565b91506129f882612993565b602d82019050919050565b7f207365636f6e647320696e20746865206675747572652e000000000000000000815250565b5f612a33826129e1565b9150612a3f8284612298565b9150612a4a82612a03565b60178201915081905092915050565b5f6020601f8301049050919050565b5f82821b905092915050565b5f60088302612aa37fffffffffffffffffffffffffffffffffffffffffffffffffffffffffffffffff82612a68565b612aad8683612a68565b95508019841693508086168417925050509392505050565b5f819050919050565b5f612ae8612ae3612ade846120ed565b612ac5565b6120ed565b9050919050565b5f819050919050565b612b0183612ace565b612b15612b0d82612aef565b848454612a74565b825550505050565b5f5f905090565b612b2c612b1d565b612b37818484612af8565b505050565b5b81811015612b5a57612b4f5f82612b24565b600181019050612b3d565b5050565b601f821115612b9f57612b708161241b565b612b7984612a59565b81016020851015612b88578190505b612b9c612b9485612a59565b830182612b3c565b50505b505050565b5f82821c905092915050565b5f612bbf5f1984600802612ba4565b1980831691505092915050565b5f612bd78383612bb0565b9150826002028217905092915050565b612bf082612015565b67ffffffffffffffff811115612c0957612c08611eaa565b5b612c1382546123eb565b612c1e828285612b5e565b5f60209050601f831160018114612c4f575f8415612c3d578287015190505b612c478582612bcc565b865550612cae565b601f198416612c5d8661241b565b5f5b82811015612c8457848901518255600182019150602085019450602081019050612c5f565b86831015612ca15784890151612c9d601f891682612bb0565b8355505b6001600288020188555050505b505050505050565b5f612cc0826120ed565b91507fffffffffffffffffffffffffffffffffffffffffffffffffffffffffffffffff8203612cf257612cf1612338565b5b600182019050919050565b7f5061727469636970616e7420686173206e6f20686973746f72790000000000005f82015250565b5f612d31601a8361201f565b9150612d3c82612cfd565b602082019050919050565b5f6020820190508181035f830152612d5e81612d25565b9050919050565b7f20203c2054696d657374616d70203d2000000000000000000000000000000000815250565b7f2c20000000000000000000000000000000000000000000000000000000000000815250565b7f416d6f756e74203d200000000000000000000000000000000000000000000000815250565b7f4c6f7474657279203d2000000000000000000000000000000000000000000000815250565b7f203e000000000000000000000000000000000000000000000000000000000000815250565b5f612e2e8287612298565b9150612e39826124ad565b600682019150612e4882612d65565b601082019150612e588286612298565b9150612e6382612d8b565b600282019150612e7282612db1565b600982019150612e828285612298565b9150612e8d82612d8b565b600282019150612e9c82612dd7565b600a82019150612eac828461242d565b9150612eb782612dfd565b60028201915081905095945050505050565b7f57696e6e696e675f486973746f72793a00000000000000000000000000000000815250565b5f612efa8284612298565b9150612f05826124ad565b600682019150612f1482612ec9565b60108201915081905092915050565b7f20204e6f6e650000000000000000000000000000000000000000000000000000815250565b5f612f548284612298565b9150612f5f826124ad565b600682019150612f6e82612f23565b60068201915081905092915050565b7f20203c2057696e6e696e6720416d6f756e74203d200000000000000000000000815250565b5f612fae8286612298565b9150612fb9826124ad565b600682019150612fc882612f7d565b601582019150612fd88285612298565b9150612fe382612d8b565b600282019150612ff282612dd7565b600a82019150613002828461242d565b915061300d82612dfd565b600282019150819050949350505050565b7f5061727469636970616e74277320636f6e747269627574696f6e206d757374205f8201527f626520706f736974697665000000000000000000000000000000000000000000602082015250565b5f613078602b8361201f565b91506130838261301e565b604082019050919050565b5f6020820190508181035f8301526130a58161306c565b9050919050565b7f4d69737365642074686520646561646c696e6520746f207061727469636970615f8201527f746520696e204c6f747465727900000000000000000000000000000000000000602082015250565b5f613106602d8361228e565b9150613111826130ac565b602d82019050919050565b5f613126826130fa565b9150819050919050565b7f5468652073656e6465722068616420616c7265616479207061727469636970615f8201527f74656420696e2074686973206c6f747465727920286e6f7420616c6c6f77656460208201527f206d6f7265207468616e206f6e63652900000000000000000000000000000000604082015250565b5f6131b060508361228e565b91506131bb82613130565b605082019050919050565b5f6131d0826131a4565b9150819050919050565b7f4f6e6c79206f776e657220697320616c6c6f77656420746f207370656e6420745f8201527f68652070726f6669747300000000000000000000000000000000000000000000602082015250565b5f613234602a8361201f565b915061323f826131da565b604082019050919050565b5f6020820190508181035f83015261326181613228565b9050919050565b7f4e6f7420656e6f7567682070726f66697473206c65667420746f207370656e645f82015250565b5f61329c60208361201f565b91506132a782613268565b602082019050919050565b5f6020820190508181035f8301526132c981613290565b9050919050565b7f4661696c656420746f2073656e6420616d6f756e7420746f20726563697069655f8201527f6e74000000000000000000000000000000000000000000000000000000000000602082015250565b5f61332a60228361201f565b9150613335826132d0565b604082019050919050565b5f6020820190508181035f8301526133578161331e565b9050919050565b7f4f6e6c79206f776e657220697320616c6c6f77656420746f206d616b652074685f8201527f6973206368616e67650000000000000000000000000000000000000000000000602082015250565b5f6133b860298361201f565b91506133c38261335e565b604082019050919050565b5f6020820190508181035f8301526133e5816133ac565b9050919050565b7f506c656173652070726f76696465206120646966666572656e74206f776e65725f82015250565b5f61342060208361201f565b915061342b826133ec565b602082019050919050565b5f6020820190508181035f83015261344d81613414565b9050919050565b7f4e487b71000000000000000000000000000000000000000000000000000000005f52601260045260245ffd5b7f4d6178206d7573742062652067726561746572207468616e20300000000000005f82015250565b5f6134b5601a8361201f565b91506134c082613481565b602082019050919050565b5f6020820190508181035f8301526134e2816134a9565b9050919050565b5f819050919050565b6135036134fe826120ed565b6134e9565b82525050565b5f8160601b9050919050565b5f61351f82613509565b9050919050565b5f61353082613515565b9050919050565b613548613543826120b4565b613526565b82525050565b5f61355982866134f2565b60208201915061356982856134f2565b6020820191506135798284613537565b601482019150819050949350505050565b5f613594826120ed565b915061359f836120ed565b9250826135af576135ae613454565b5b828206905092915050565b5f6135c4826120ed565b91505f82036135d6576135d5612338565b5b600182039050919050565b5f6040820190506135f45f8301856121cf565b61360160208301846121cf565b939250505056fea264697066735822122084dd62ba9494dabb17209db3801d4c893a8898827329fea3bdbd4bb56d1156eb64736f6c634300081e0033",
			"opcodes": "PUSH1 0x80 PUSH1 0x40 MSTORE CALLVALUE DUP1 ISZERO PUSH1 0xE JUMPI PUSH0 PUSH0 REVERT JUMPDEST POP CALLER PUSH1 0x6 PUSH0 PUSH2 0x100 EXP DUP2 SLOAD DUP2 PUSH20 0xFFFFFFFFFFFFFFFFFFFFFFFFFFFFFFFFFFFFFFFF MUL NOT AND SWAP1 DUP4 PUSH20 0xFFFFFFFFFFFFFFFFFFFFFFFFFFFFFFFFFFFFFFFF AND MUL OR SWAP1 SSTORE POP PUSH0 PUSH1 0x1 DUP2 SWAP1 SSTORE POP PUSH0 PUSH1 0x7 DUP2 SWAP1 SSTORE POP PUSH2 0x363E DUP1 PUSH2 0x6A PUSH0 CODECOPY PUSH0 RETURN INVALID PUSH1 0x80 PUSH1 0x40 MSTORE PUSH1 0x4 CALLDATASIZE LT PUSH2 0xAA JUMPI PUSH0 CALLDATALOAD PUSH1 0xE0 SHR DUP1 PUSH4 0x7EFEB94A GT PUSH2 0x63 JUMPI DUP1 PUSH4 0x7EFEB94A EQ PUSH2 0x1E3 JUMPI DUP1 PUSH4 0x9696E830 EQ PUSH2 0x20D JUMPI DUP1 PUSH4 0xA5D10ABB EQ PUSH2 0x229 JUMPI DUP1 PUSH4 0xA6F9DAE1 EQ PUSH2 0x251 JUMPI DUP1 PUSH4 0xBAFDB1C0 EQ PUSH2 0x279 JUMPI DUP1 PUSH4 0xD7A8E87B EQ PUSH2 0x2B5 JUMPI PUSH2 0xAB JUMP JUMPDEST DUP1 PUSH4 0x12571F63 EQ PUSH2 0xAD JUMPI DUP1 PUSH4 0x2303ECF7 EQ PUSH2 0xE9 JUMPI DUP1 PUSH4 0x2CFC4311 EQ PUSH2 0x125 JUMPI DUP1 PUSH4 0x4CF7C741 EQ PUSH2 0x141 JUMPI DUP1 PUSH4 0x78A03C47 EQ PUSH2 0x17D JUMPI DUP1 PUSH4 0x796B89B9 EQ PUSH2 0x1B9 JUMPI PUSH2 0xAB JUMP JUMPDEST JUMPDEST STOP JUMPDEST CALLVALUE DUP1 ISZERO PUSH2 0xB8 JUMPI PUSH0 PUSH0 REVERT JUMPDEST POP PUSH2 0xD3 PUSH1 0x4 DUP1 CALLDATASIZE SUB DUP2 ADD SWAP1 PUSH2 0xCE SWAP2 SWAP1 PUSH2 0x1FCE JUMP JUMPDEST PUSH2 0x2DF JUMP JUMPDEST PUSH1 0x40 MLOAD PUSH2 0xE0 SWAP2 SWAP1 PUSH2 0x2075 JUMP JUMPDEST PUSH1 0x40 MLOAD DUP1 SWAP2 SUB SWAP1 RETURN JUMPDEST CALLVALUE DUP1 ISZERO PUSH2 0xF4 JUMPI PUSH0 PUSH0 REVERT JUMPDEST POP PUSH2 0x10F PUSH1 0x4 DUP1 CALLDATASIZE SUB DUP2 ADD SWAP1 PUSH2 0x10A SWAP2 SWAP1 PUSH2 0x1FCE JUMP JUMPDEST PUSH2 0x566 JUMP JUMPDEST PUSH1 0x40 MLOAD PUSH2 0x11C SWAP2 SWAP1 PUSH2 0x20D4 JUMP JUMPDEST PUSH1 0x40 MLOAD DUP1 SWAP2 SUB SWAP1 RETURN JUMPDEST PUSH2 0x13F PUSH1 0x4 DUP1 CALLDATASIZE SUB DUP2 ADD SWAP1 PUSH2 0x13A SWAP2 SWAP1 PUSH2 0x2120 JUMP JUMPDEST PUSH2 0xAEF JUMP JUMPDEST STOP JUMPDEST CALLVALUE DUP1 ISZERO PUSH2 0x14C JUMPI PUSH0 PUSH0 REVERT JUMPDEST POP PUSH2 0x167 PUSH1 0x4 DUP1 CALLDATASIZE SUB DUP2 ADD SWAP1 PUSH2 0x162 SWAP2 SWAP1 PUSH2 0x1FCE JUMP JUMPDEST PUSH2 0xC91 JUMP JUMPDEST PUSH1 0x40 MLOAD PUSH2 0x174 SWAP2 SWAP1 PUSH2 0x20D4 JUMP JUMPDEST PUSH1 0x40 MLOAD DUP1 SWAP2 SUB SWAP1 RETURN JUMPDEST CALLVALUE DUP1 ISZERO PUSH2 0x188 JUMPI PUSH0 PUSH0 REVERT JUMPDEST POP PUSH2 0x1A3 PUSH1 0x4 DUP1 CALLDATASIZE SUB DUP2 ADD SWAP1 PUSH2 0x19E SWAP2 SWAP1 PUSH2 0x21A4 JUMP JUMPDEST PUSH2 0xDE1 JUMP JUMPDEST PUSH1 0x40 MLOAD PUSH2 0x1B0 SWAP2 SWAP1 PUSH2 0x2075 JUMP JUMPDEST PUSH1 0x40 MLOAD DUP1 SWAP2 SUB SWAP1 RETURN JUMPDEST CALLVALUE DUP1 ISZERO PUSH2 0x1C4 JUMPI PUSH0 PUSH0 REVERT JUMPDEST POP PUSH2 0x1CD PUSH2 0x1194 JUMP JUMPDEST PUSH1 0x40 MLOAD PUSH2 0x1DA SWAP2 SWAP1 PUSH2 0x21DE JUMP JUMPDEST PUSH1 0x40 MLOAD DUP1 SWAP2 SUB SWAP1 RETURN JUMPDEST CALLVALUE DUP1 ISZERO PUSH2 0x1EE JUMPI PUSH0 PUSH0 REVERT JUMPDEST POP PUSH2 0x1F7 PUSH2 0x119B JUMP JUMPDEST PUSH1 0x40 MLOAD PUSH2 0x204 SWAP2 SWAP1 PUSH2 0x21DE JUMP JUMPDEST PUSH1 0x40 MLOAD DUP1 SWAP2 SUB SWAP1 RETURN JUMPDEST PUSH2 0x227 PUSH1 0x4 DUP1 CALLDATASIZE SUB DUP2 ADD SWAP1 PUSH2 0x222 SWAP2 SWAP1 PUSH2 0x1FCE JUMP JUMPDEST PUSH2 0x11A1 JUMP JUMPDEST STOP JUMPDEST CALLVALUE DUP1 ISZERO PUSH2 0x234 JUMPI PUSH0 PUSH0 REVERT JUMPDEST POP PUSH2 0x24F PUSH1 0x4 DUP1 CALLDATASIZE SUB DUP2 ADD SWAP1 PUSH2 0x24A SWAP2 SWAP1 PUSH2 0x21F7 JUMP JUMPDEST PUSH2 0x155A JUMP JUMPDEST STOP JUMPDEST CALLVALUE DUP1 ISZERO PUSH2 0x25C JUMPI PUSH0 PUSH0 REVERT JUMPDEST POP PUSH2 0x277 PUSH1 0x4 DUP1 CALLDATASIZE SUB DUP2 ADD SWAP1 PUSH2 0x272 SWAP2 SWAP1 PUSH2 0x21A4 JUMP JUMPDEST PUSH2 0x16F3 JUMP JUMPDEST STOP JUMPDEST CALLVALUE DUP1 ISZERO PUSH2 0x284 JUMPI PUSH0 PUSH0 REVERT JUMPDEST POP PUSH2 0x29F PUSH1 0x4 DUP1 CALLDATASIZE SUB DUP2 ADD SWAP1 PUSH2 0x29A SWAP2 SWAP1 PUSH2 0x1FCE JUMP JUMPDEST PUSH2 0x1854 JUMP JUMPDEST PUSH1 0x40 MLOAD PUSH2 0x2AC SWAP2 SWAP1 PUSH2 0x224F JUMP JUMPDEST PUSH1 0x40 MLOAD DUP1 SWAP2 SUB SWAP1 RETURN JUMPDEST CALLVALUE DUP1 ISZERO PUSH2 0x2C0 JUMPI PUSH0 PUSH0 REVERT JUMPDEST POP PUSH2 0x2C9 PUSH2 0x188A JUMP JUMPDEST PUSH1 0x40 MLOAD PUSH2 0x2D6 SWAP2 SWAP1 PUSH2 0x21DE JUMP JUMPDEST PUSH1 0x40 MLOAD DUP1 SWAP2 SUB SWAP1 RETURN JUMPDEST PUSH1 0x60 PUSH2 0x2EA DUP3 PUSH2 0x1893 JUMP JUMPDEST DUP3 PUSH1 0x40 MLOAD PUSH1 0x20 ADD PUSH2 0x2FB SWAP2 SWAP1 PUSH2 0x22EE JUMP JUMPDEST PUSH1 0x40 MLOAD PUSH1 0x20 DUP2 DUP4 SUB SUB DUP2 MSTORE SWAP1 PUSH1 0x40 MSTORE SWAP1 PUSH2 0x34B JUMPI PUSH1 0x40 MLOAD PUSH32 0x8C379A000000000000000000000000000000000000000000000000000000000 DUP2 MSTORE PUSH1 0x4 ADD PUSH2 0x342 SWAP2 SWAP1 PUSH2 0x2075 JUMP JUMPDEST PUSH1 0x40 MLOAD DUP1 SWAP2 SUB SWAP1 REVERT JUMPDEST POP PUSH0 PUSH1 0x1 PUSH1 0x2 DUP5 PUSH1 0x40 MLOAD PUSH2 0x35F SWAP2 SWAP1 PUSH2 0x2322 JUMP JUMPDEST SWAP1 DUP2 MSTORE PUSH1 0x20 ADD PUSH1 0x40 MLOAD DUP1 SWAP2 SUB SWAP1 KECCAK256 SLOAD PUSH2 0x378 SWAP2 SWAP1 PUSH2 0x2365 JUMP JUMPDEST SWAP1 POP TIMESTAMP PUSH0 PUSH0 DUP4 DUP2 MSTORE PUSH1 0x20 ADD SWAP1 DUP2 MSTORE PUSH1 0x20 ADD PUSH0 KECCAK256 PUSH1 0x3 ADD SLOAD GT ISZERO DUP1 ISZERO PUSH2 0x3FC JUMPI POP PUSH0 PUSH20 0xFFFFFFFFFFFFFFFFFFFFFFFFFFFFFFFFFFFFFFFF AND PUSH0 PUSH0 DUP4 DUP2 MSTORE PUSH1 0x20 ADD SWAP1 DUP2 MSTORE PUSH1 0x20 ADD PUSH0 KECCAK256 PUSH1 0x4 ADD PUSH0 ADD PUSH0 SWAP1 SLOAD SWAP1 PUSH2 0x100 EXP SWAP1 DIV PUSH20 0xFFFFFFFFFFFFFFFFFFFFFFFFFFFFFFFFFFFFFFFF AND PUSH20 0xFFFFFFFFFFFFFFFFFFFFFFFFFFFFFFFFFFFFFFFF AND EQ JUMPDEST ISZERO PUSH2 0x40C JUMPI PUSH2 0x40A DUP4 PUSH2 0x566 JUMP JUMPDEST POP JUMPDEST PUSH0 PUSH0 PUSH0 DUP4 DUP2 MSTORE PUSH1 0x20 ADD SWAP1 DUP2 MSTORE PUSH1 0x20 ADD PUSH0 KECCAK256 PUSH0 ADD PUSH2 0x43B PUSH0 PUSH0 DUP6 DUP2 MSTORE PUSH1 0x20 ADD SWAP1 DUP2 MSTORE PUSH1 0x20 ADD PUSH0 KECCAK256 PUSH1 0x2 ADD SLOAD PUSH2 0x18BD JUMP JUMPDEST PUSH1 0x40 MLOAD PUSH1 0x20 ADD PUSH2 0x44C SWAP3 SWAP2 SWAP1 PUSH2 0x24F9 JUMP JUMPDEST PUSH1 0x40 MLOAD PUSH1 0x20 DUP2 DUP4 SUB SUB DUP2 MSTORE SWAP1 PUSH1 0x40 MSTORE SWAP1 POP TIMESTAMP PUSH0 PUSH0 DUP5 DUP2 MSTORE PUSH1 0x20 ADD SWAP1 DUP2 MSTORE PUSH1 0x20 ADD PUSH0 KECCAK256 PUSH1 0x3 ADD SLOAD GT ISZERO PUSH2 0x4BE JUMPI DUP1 PUSH2 0x495 PUSH0 PUSH0 DUP6 DUP2 MSTORE PUSH1 0x20 ADD SWAP1 DUP2 MSTORE PUSH1 0x20 ADD PUSH0 KECCAK256 PUSH1 0x3 ADD SLOAD PUSH2 0x18BD JUMP JUMPDEST PUSH1 0x40 MLOAD PUSH1 0x20 ADD PUSH2 0x4A6 SWAP3 SWAP2 SWAP1 PUSH2 0x256F JUMP JUMPDEST PUSH1 0x40 MLOAD PUSH1 0x20 DUP2 DUP4 SUB SUB DUP2 MSTORE SWAP1 PUSH1 0x40 MSTORE SWAP3 POP POP POP PUSH2 0x561 JUMP JUMPDEST DUP1 PUSH2 0x4FC PUSH0 PUSH0 DUP6 DUP2 MSTORE PUSH1 0x20 ADD SWAP1 DUP2 MSTORE PUSH1 0x20 ADD PUSH0 KECCAK256 PUSH1 0x4 ADD PUSH0 ADD PUSH0 SWAP1 SLOAD SWAP1 PUSH2 0x100 EXP SWAP1 DIV PUSH20 0xFFFFFFFFFFFFFFFFFFFFFFFFFFFFFFFFFFFFFFFF AND PUSH2 0x1987 JUMP JUMPDEST PUSH2 0x51B PUSH0 PUSH0 DUP7 DUP2 MSTORE PUSH1 0x20 ADD SWAP1 DUP2 MSTORE PUSH1 0x20 ADD PUSH0 KECCAK256 PUSH1 0x4 ADD PUSH1 0x1 ADD SLOAD PUSH2 0x19B4 JUMP JUMPDEST PUSH2 0x53A PUSH0 PUSH0 DUP8 DUP2 MSTORE PUSH1 0x20 ADD SWAP1 DUP2 MSTORE PUSH1 0x20 ADD PUSH0 KECCAK256 PUSH1 0x4 ADD PUSH1 0x2 ADD SLOAD PUSH2 0x18BD JUMP JUMPDEST PUSH1 0x40 MLOAD PUSH1 0x20 ADD PUSH2 0x54D SWAP5 SWAP4 SWAP3 SWAP2 SWAP1 PUSH2 0x2622 JUMP JUMPDEST PUSH1 0x40 MLOAD PUSH1 0x20 DUP2 DUP4 SUB SUB DUP2 MSTORE SWAP1 PUSH1 0x40 MSTORE SWAP3 POP POP POP JUMPDEST SWAP2 SWAP1 POP JUMP JUMPDEST PUSH0 PUSH2 0x570 DUP3 PUSH2 0x1893 JUMP JUMPDEST DUP3 PUSH1 0x40 MLOAD PUSH1 0x20 ADD PUSH2 0x581 SWAP2 SWAP1 PUSH2 0x22EE JUMP JUMPDEST PUSH1 0x40 MLOAD PUSH1 0x20 DUP2 DUP4 SUB SUB DUP2 MSTORE SWAP1 PUSH1 0x40 MSTORE SWAP1 PUSH2 0x5D1 JUMPI PUSH1 0x40 MLOAD PUSH32 0x8C379A000000000000000000000000000000000000000000000000000000000 DUP2 MSTORE PUSH1 0x4 ADD PUSH2 0x5C8 SWAP2 SWAP1 PUSH2 0x2075 JUMP JUMPDEST PUSH1 0x40 MLOAD DUP1 SWAP2 SUB SWAP1 REVERT JUMPDEST POP PUSH0 PUSH1 0x1 PUSH1 0x2 DUP5 PUSH1 0x40 MLOAD PUSH2 0x5E5 SWAP2 SWAP1 PUSH2 0x2322 JUMP JUMPDEST SWAP1 DUP2 MSTORE PUSH1 0x20 ADD PUSH1 0x40 MLOAD DUP1 SWAP2 SUB SWAP1 KECCAK256 SLOAD PUSH2 0x5FE SWAP2 SWAP1 PUSH2 0x2365 JUMP JUMPDEST SWAP1 POP PUSH0 PUSH20 0xFFFFFFFFFFFFFFFFFFFFFFFFFFFFFFFFFFFFFFFF AND PUSH0 PUSH0 DUP4 DUP2 MSTORE PUSH1 0x20 ADD SWAP1 DUP2 MSTORE PUSH1 0x20 ADD PUSH0 KECCAK256 PUSH1 0x4 ADD PUSH0 ADD PUSH0 SWAP1 SLOAD SWAP1 PUSH2 0x100 EXP SWAP1 DIV PUSH20 0xFFFFFFFFFFFFFFFFFFFFFFFFFFFFFFFFFFFFFFFF AND PUSH20 0xFFFFFFFFFFFFFFFFFFFFFFFFFFFFFFFFFFFFFFFF AND EQ PUSH2 0x6A0 PUSH0 PUSH0 DUP5 DUP2 MSTORE PUSH1 0x20 ADD SWAP1 DUP2 MSTORE PUSH1 0x20 ADD PUSH0 KECCAK256 PUSH1 0x4 ADD PUSH0 ADD PUSH0 SWAP1 SLOAD SWAP1 PUSH2 0x100 EXP SWAP1 DIV PUSH20 0xFFFFFFFFFFFFFFFFFFFFFFFFFFFFFFFFFFFFFFFF AND PUSH2 0x1987 JUMP JUMPDEST PUSH1 0x40 MLOAD PUSH1 0x20 ADD PUSH2 0x6B0 SWAP2 SWAP1 PUSH2 0x26DF JUMP JUMPDEST PUSH1 0x40 MLOAD PUSH1 0x20 DUP2 DUP4 SUB SUB DUP2 MSTORE SWAP1 PUSH1 0x40 MSTORE SWAP1 PUSH2 0x700 JUMPI PUSH1 0x40 MLOAD PUSH32 0x8C379A000000000000000000000000000000000000000000000000000000000 DUP2 MSTORE PUSH1 0x4 ADD PUSH2 0x6F7 SWAP2 SWAP1 PUSH2 0x2075 JUMP JUMPDEST PUSH1 0x40 MLOAD DUP1 SWAP2 SUB SWAP1 REVERT JUMPDEST POP PUSH0 PUSH0 DUP3 DUP2 MSTORE PUSH1 0x20 ADD SWAP1 DUP2 MSTORE PUSH1 0x20 ADD PUSH0 KECCAK256 PUSH1 0x3 ADD SLOAD TIMESTAMP LT ISZERO PUSH2 0x734 PUSH0 PUSH0 DUP5 DUP2 MSTORE PUSH1 0x20 ADD SWAP1 DUP2 MSTORE PUSH1 0x20 ADD PUSH0 KECCAK256 PUSH1 0x3 ADD SLOAD PUSH2 0x18BD JUMP JUMPDEST PUSH1 0x40 MLOAD PUSH1 0x20 ADD PUSH2 0x744 SWAP2 SWAP1 PUSH2 0x2774 JUMP JUMPDEST PUSH1 0x40 MLOAD PUSH1 0x20 DUP2 DUP4 SUB SUB DUP2 MSTORE SWAP1 PUSH1 0x40 MSTORE SWAP1 PUSH2 0x794 JUMPI PUSH1 0x40 MLOAD PUSH32 0x8C379A000000000000000000000000000000000000000000000000000000000 DUP2 MSTORE PUSH1 0x4 ADD PUSH2 0x78B SWAP2 SWAP1 PUSH2 0x2075 JUMP JUMPDEST PUSH1 0x40 MLOAD DUP1 SWAP2 SUB SWAP1 REVERT JUMPDEST POP PUSH0 PUSH2 0x7B5 PUSH0 PUSH0 DUP5 DUP2 MSTORE PUSH1 0x20 ADD SWAP1 DUP2 MSTORE PUSH1 0x20 ADD PUSH0 KECCAK256 PUSH1 0x1 ADD DUP1 SLOAD SWAP1 POP PUSH2 0x19D2 JUMP JUMPDEST SWAP1 POP PUSH0 PUSH0 PUSH0 DUP5 DUP2 MSTORE PUSH1 0x20 ADD SWAP1 DUP2 MSTORE PUSH1 0x20 ADD PUSH0 KECCAK256 PUSH1 0x1 ADD DUP3 DUP2 SLOAD DUP2 LT PUSH2 0x7DD JUMPI PUSH2 0x7DC PUSH2 0x2795 JUMP JUMPDEST JUMPDEST SWAP1 PUSH0 MSTORE PUSH1 0x20 PUSH0 KECCAK256 SWAP1 PUSH1 0x3 MUL ADD PUSH1 0x1 ADD SLOAD PUSH1 0x2 PUSH2 0x7F9 SWAP2 SWAP1 PUSH2 0x27C2 JUMP JUMPDEST SWAP1 POP DUP1 PUSH0 PUSH0 DUP6 DUP2 MSTORE PUSH1 0x20 ADD SWAP1 DUP2 MSTORE PUSH1 0x20 ADD PUSH0 KECCAK256 PUSH1 0x2 ADD SLOAD LT ISZERO PUSH2 0x82D JUMPI PUSH0 PUSH0 DUP5 DUP2 MSTORE PUSH1 0x20 ADD SWAP1 DUP2 MSTORE PUSH1 0x20 ADD PUSH0 KECCAK256 PUSH1 0x2 ADD SLOAD SWAP1 POP JUMPDEST PUSH0 PUSH0 DUP5 DUP2 MSTORE PUSH1 0x20 ADD SWAP1 DUP2 MSTORE PUSH1 0x20 ADD PUSH0 KECCAK256 PUSH1 0x1 ADD DUP3 DUP2 SLOAD DUP2 LT PUSH2 0x852 JUMPI PUSH2 0x851 PUSH2 0x2795 JUMP JUMPDEST JUMPDEST SWAP1 PUSH0 MSTORE PUSH1 0x20 PUSH0 KECCAK256 SWAP1 PUSH1 0x3 MUL ADD PUSH0 ADD PUSH0 SWAP1 SLOAD SWAP1 PUSH2 0x100 EXP SWAP1 DIV PUSH20 0xFFFFFFFFFFFFFFFFFFFFFFFFFFFFFFFFFFFFFFFF AND PUSH0 PUSH0 DUP6 DUP2 MSTORE PUSH1 0x20 ADD SWAP1 DUP2 MSTORE PUSH1 0x20 ADD PUSH0 KECCAK256 PUSH1 0x4 ADD PUSH0 ADD PUSH0 PUSH2 0x100 EXP DUP2 SLOAD DUP2 PUSH20 0xFFFFFFFFFFFFFFFFFFFFFFFFFFFFFFFFFFFFFFFF MUL NOT AND SWAP1 DUP4 PUSH20 0xFFFFFFFFFFFFFFFFFFFFFFFFFFFFFFFFFFFFFFFF AND MUL OR SWAP1 SSTORE POP DUP1 PUSH0 PUSH0 DUP6 DUP2 MSTORE PUSH1 0x20 ADD SWAP1 DUP2 MSTORE PUSH1 0x20 ADD PUSH0 KECCAK256 PUSH1 0x4 ADD PUSH1 0x1 ADD DUP2 SWAP1 SSTORE POP TIMESTAMP PUSH0 PUSH0 DUP6 DUP2 MSTORE PUSH1 0x20 ADD SWAP1 DUP2 MSTORE PUSH1 0x20 ADD PUSH0 KECCAK256 PUSH1 0x4 ADD PUSH1 0x2 ADD DUP2 SWAP1 SSTORE POP DUP1 PUSH0 PUSH0 DUP6 DUP2 MSTORE PUSH1 0x20 ADD SWAP1 DUP2 MSTORE PUSH1 0x20 ADD PUSH0 KECCAK256 PUSH1 0x2 ADD SLOAD PUSH2 0x927 SWAP2 SWAP1 PUSH2 0x2365 JUMP JUMPDEST PUSH1 0x7 PUSH0 DUP3 DUP3 SLOAD PUSH2 0x937 SWAP2 SWAP1 PUSH2 0x2803 JUMP JUMPDEST SWAP3 POP POP DUP2 SWAP1 SSTORE POP PUSH0 PUSH0 PUSH0 DUP6 DUP2 MSTORE PUSH1 0x20 ADD SWAP1 DUP2 MSTORE PUSH1 0x20 ADD PUSH0 KECCAK256 PUSH1 0x4 ADD PUSH0 ADD PUSH0 SWAP1 SLOAD SWAP1 PUSH2 0x100 EXP SWAP1 DIV PUSH20 0xFFFFFFFFFFFFFFFFFFFFFFFFFFFFFFFFFFFFFFFF AND PUSH20 0xFFFFFFFFFFFFFFFFFFFFFFFFFFFFFFFFFFFFFFFF AND DUP3 PUSH1 0x40 MLOAD PUSH2 0x997 SWAP1 PUSH2 0x2863 JUMP JUMPDEST PUSH0 PUSH1 0x40 MLOAD DUP1 DUP4 SUB DUP2 DUP6 DUP8 GAS CALL SWAP3 POP POP POP RETURNDATASIZE DUP1 PUSH0 DUP2 EQ PUSH2 0x9D1 JUMPI PUSH1 0x40 MLOAD SWAP2 POP PUSH1 0x1F NOT PUSH1 0x3F RETURNDATASIZE ADD AND DUP3 ADD PUSH1 0x40 MSTORE RETURNDATASIZE DUP3 MSTORE RETURNDATASIZE PUSH0 PUSH1 0x20 DUP5 ADD RETURNDATACOPY PUSH2 0x9D6 JUMP JUMPDEST PUSH1 0x60 SWAP2 POP JUMPDEST POP POP SWAP1 POP DUP1 PUSH2 0xA1A JUMPI PUSH1 0x40 MLOAD PUSH32 0x8C379A000000000000000000000000000000000000000000000000000000000 DUP2 MSTORE PUSH1 0x4 ADD PUSH2 0xA11 SWAP1 PUSH2 0x28E7 JUMP JUMPDEST PUSH1 0x40 MLOAD DUP1 SWAP2 SUB SWAP1 REVERT JUMPDEST PUSH1 0x5 PUSH0 PUSH0 PUSH0 DUP8 DUP2 MSTORE PUSH1 0x20 ADD SWAP1 DUP2 MSTORE PUSH1 0x20 ADD PUSH0 KECCAK256 PUSH1 0x4 ADD PUSH0 ADD PUSH0 SWAP1 SLOAD SWAP1 PUSH2 0x100 EXP SWAP1 DIV PUSH20 0xFFFFFFFFFFFFFFFFFFFFFFFFFFFFFFFFFFFFFFFF AND PUSH20 0xFFFFFFFFFFFFFFFFFFFFFFFFFFFFFFFFFFFFFFFF AND PUSH20 0xFFFFFFFFFFFFFFFFFFFFFFFFFFFFFFFFFFFFFFFF AND DUP2 MSTORE PUSH1 0x20 ADD SWAP1 DUP2 MSTORE PUSH1 0x20 ADD PUSH0 KECCAK256 DUP5 SWAP1 DUP1 PUSH1 0x1 DUP2 SLOAD ADD DUP1 DUP3 SSTORE DUP1 SWAP2 POP POP PUSH1 0x1 SWAP1 SUB SWAP1 PUSH0 MSTORE PUSH1 0x20 PUSH0 KECCAK256 ADD PUSH0 SWAP1 SWAP2 SWAP1 SWAP2 SWAP1 SWAP2 POP SSTORE PUSH0 PUSH0 DUP6 DUP2 MSTORE PUSH1 0x20 ADD SWAP1 DUP2 MSTORE PUSH1 0x20 ADD PUSH0 KECCAK256 PUSH1 0x4 ADD PUSH0 ADD PUSH0 SWAP1 SLOAD SWAP1 PUSH2 0x100 EXP SWAP1 DIV PUSH20 0xFFFFFFFFFFFFFFFFFFFFFFFFFFFFFFFFFFFFFFFF AND SWAP5 POP POP POP POP POP SWAP2 SWAP1 POP JUMP JUMPDEST PUSH2 0xAF8 DUP3 PUSH2 0x1854 JUMP JUMPDEST PUSH2 0xB37 JUMPI PUSH1 0x40 MLOAD PUSH32 0x8C379A000000000000000000000000000000000000000000000000000000000 DUP2 MSTORE PUSH1 0x4 ADD PUSH2 0xB2E SWAP1 PUSH2 0x2975 JUMP JUMPDEST PUSH1 0x40 MLOAD DUP1 SWAP2 SUB SWAP1 REVERT JUMPDEST PUSH2 0x4B0 TIMESTAMP PUSH2 0xB45 SWAP2 SWAP1 PUSH2 0x2803 JUMP JUMPDEST DUP2 GT PUSH2 0xB52 PUSH2 0x4B0 PUSH2 0x18BD JUMP JUMPDEST PUSH1 0x40 MLOAD PUSH1 0x20 ADD PUSH2 0xB62 SWAP2 SWAP1 PUSH2 0x2A29 JUMP JUMPDEST PUSH1 0x40 MLOAD PUSH1 0x20 DUP2 DUP4 SUB SUB DUP2 MSTORE SWAP1 PUSH1 0x40 MSTORE SWAP1 PUSH2 0xBB2 JUMPI PUSH1 0x40 MLOAD PUSH32 0x8C379A000000000000000000000000000000000000000000000000000000000 DUP2 MSTORE PUSH1 0x4 ADD PUSH2 0xBA9 SWAP2 SWAP1 PUSH2 0x2075 JUMP JUMPDEST PUSH1 0x40 MLOAD DUP1 SWAP2 SUB SWAP1 REVERT JUMPDEST POP PUSH0 PUSH0 PUSH0 PUSH1 0x1 SLOAD DUP2 MSTORE PUSH1 0x20 ADD SWAP1 DUP2 MSTORE PUSH1 0x20 ADD PUSH0 KECCAK256 SWAP1 POP DUP3 DUP2 PUSH0 ADD SWAP1 DUP2 PUSH2 0xBD8 SWAP2 SWAP1 PUSH2 0x2BE7 JUMP JUMPDEST POP PUSH0 DUP2 PUSH1 0x2 ADD DUP2 SWAP1 SSTORE POP DUP2 DUP2 PUSH1 0x3 ADD DUP2 SWAP1 SSTORE POP PUSH0 DUP2 PUSH1 0x4 ADD PUSH0 ADD PUSH0 PUSH2 0x100 EXP DUP2 SLOAD DUP2 PUSH20 0xFFFFFFFFFFFFFFFFFFFFFFFFFFFFFFFFFFFFFFFF MUL NOT AND SWAP1 DUP4 PUSH20 0xFFFFFFFFFFFFFFFFFFFFFFFFFFFFFFFFFFFFFFFF AND MUL OR SWAP1 SSTORE POP PUSH0 DUP2 PUSH1 0x4 ADD PUSH1 0x1 ADD DUP2 SWAP1 SSTORE POP PUSH0 DUP2 PUSH1 0x4 ADD PUSH1 0x2 ADD DUP2 SWAP1 SSTORE POP PUSH1 0x1 PUSH0 DUP2 SLOAD DUP1 SWAP3 SWAP2 SWAP1 PUSH2 0xC59 SWAP1 PUSH2 0x2CB6 JUMP JUMPDEST SWAP2 SWAP1 POP SSTORE POP PUSH1 0x1 SLOAD PUSH1 0x2 DUP5 PUSH1 0x40 MLOAD PUSH2 0xC71 SWAP2 SWAP1 PUSH2 0x2322 JUMP JUMPDEST SWAP1 DUP2 MSTORE PUSH1 0x20 ADD PUSH1 0x40 MLOAD DUP1 SWAP2 SUB SWAP1 KECCAK256 DUP2 SWAP1 SSTORE POP PUSH2 0xC8C DUP4 PUSH2 0x11A1 JUMP JUMPDEST POP POP POP JUMP JUMPDEST PUSH0 PUSH2 0xC9B DUP3 PUSH2 0x1893 JUMP JUMPDEST DUP3 PUSH1 0x40 MLOAD PUSH1 0x20 ADD PUSH2 0xCAC SWAP2 SWAP1 PUSH2 0x22EE JUMP JUMPDEST PUSH1 0x40 MLOAD PUSH1 0x20 DUP2 DUP4 SUB SUB DUP2 MSTORE SWAP1 PUSH1 0x40 MSTORE SWAP1 PUSH2 0xCFC JUMPI PUSH1 0x40 MLOAD PUSH32 0x8C379A000000000000000000000000000000000000000000000000000000000 DUP2 MSTORE PUSH1 0x4 ADD PUSH2 0xCF3 SWAP2 SWAP1 PUSH2 0x2075 JUMP JUMPDEST PUSH1 0x40 MLOAD DUP1 SWAP2 SUB SWAP1 REVERT JUMPDEST POP PUSH0 PUSH1 0x1 PUSH1 0x2 DUP5 PUSH1 0x40 MLOAD PUSH2 0xD10 SWAP2 SWAP1 PUSH2 0x2322 JUMP JUMPDEST SWAP1 DUP2 MSTORE PUSH1 0x20 ADD PUSH1 0x40 MLOAD DUP1 SWAP2 SUB SWAP1 KECCAK256 SLOAD PUSH2 0xD29 SWAP2 SWAP1 PUSH2 0x2365 JUMP JUMPDEST SWAP1 POP PUSH0 PUSH20 0xFFFFFFFFFFFFFFFFFFFFFFFFFFFFFFFFFFFFFFFF AND PUSH0 PUSH0 DUP4 DUP2 MSTORE PUSH1 0x20 ADD SWAP1 DUP2 MSTORE PUSH1 0x20 ADD PUSH0 KECCAK256 PUSH1 0x4 ADD PUSH0 ADD PUSH0 SWAP1 SLOAD SWAP1 PUSH2 0x100 EXP SWAP1 DIV PUSH20 0xFFFFFFFFFFFFFFFFFFFFFFFFFFFFFFFFFFFFFFFF AND PUSH20 0xFFFFFFFFFFFFFFFFFFFFFFFFFFFFFFFFFFFFFFFF AND EQ PUSH2 0xDCF JUMPI PUSH0 PUSH0 DUP3 DUP2 MSTORE PUSH1 0x20 ADD SWAP1 DUP2 MSTORE PUSH1 0x20 ADD PUSH0 KECCAK256 PUSH1 0x4 ADD PUSH0 ADD PUSH0 SWAP1 SLOAD SWAP1 PUSH2 0x100 EXP SWAP1 DIV PUSH20 0xFFFFFFFFFFFFFFFFFFFFFFFFFFFFFFFFFFFFFFFF AND SWAP2 POP POP PUSH2 0xDDC JUMP JUMPDEST PUSH2 0xDD8 DUP4 PUSH2 0x566 JUMP JUMPDEST SWAP2 POP POP JUMPDEST SWAP2 SWAP1 POP JUMP JUMPDEST PUSH1 0x60 PUSH0 PUSH1 0x3 PUSH0 DUP5 PUSH20 0xFFFFFFFFFFFFFFFFFFFFFFFFFFFFFFFFFFFFFFFF AND PUSH20 0xFFFFFFFFFFFFFFFFFFFFFFFFFFFFFFFFFFFFFFFF AND DUP2 MSTORE PUSH1 0x20 ADD SWAP1 DUP2 MSTORE PUSH1 0x20 ADD PUSH0 KECCAK256 DUP1 SLOAD SWAP1 POP SWAP1 POP PUSH0 DUP2 GT PUSH2 0xE69 JUMPI PUSH1 0x40 MLOAD PUSH32 0x8C379A000000000000000000000000000000000000000000000000000000000 DUP2 MSTORE PUSH1 0x4 ADD PUSH2 0xE60 SWAP1 PUSH2 0x2D47 JUMP JUMPDEST PUSH1 0x40 MLOAD DUP1 SWAP2 SUB SWAP1 REVERT JUMPDEST PUSH0 PUSH1 0x40 MLOAD DUP1 PUSH1 0x40 ADD PUSH1 0x40 MSTORE DUP1 PUSH1 0x16 DUP2 MSTORE PUSH1 0x20 ADD PUSH32 0x50617274696369706174696F6E5F486973746F72793A00000000000000000000 DUP2 MSTORE POP SWAP1 POP PUSH0 PUSH0 SWAP1 POP JUMPDEST DUP3 DUP2 LT ISZERO PUSH2 0xFFB JUMPI PUSH0 PUSH1 0x3 PUSH0 DUP8 PUSH20 0xFFFFFFFFFFFFFFFFFFFFFFFFFFFFFFFFFFFFFFFF AND PUSH20 0xFFFFFFFFFFFFFFFFFFFFFFFFFFFFFFFFFFFFFFFF AND DUP2 MSTORE PUSH1 0x20 ADD SWAP1 DUP2 MSTORE PUSH1 0x20 ADD PUSH0 KECCAK256 DUP3 DUP2 SLOAD DUP2 LT PUSH2 0xEFF JUMPI PUSH2 0xEFE PUSH2 0x2795 JUMP JUMPDEST JUMPDEST SWAP1 PUSH0 MSTORE PUSH1 0x20 PUSH0 KECCAK256 ADD SLOAD SWAP1 POP PUSH0 PUSH1 0x1 PUSH1 0x4 PUSH0 DUP10 PUSH20 0xFFFFFFFFFFFFFFFFFFFFFFFFFFFFFFFFFFFFFFFF AND PUSH20 0xFFFFFFFFFFFFFFFFFFFFFFFFFFFFFFFFFFFFFFFF AND DUP2 MSTORE PUSH1 0x20 ADD SWAP1 DUP2 MSTORE PUSH1 0x20 ADD PUSH0 KECCAK256 PUSH0 DUP5 DUP2 MSTORE PUSH1 0x20 ADD SWAP1 DUP2 MSTORE PUSH1 0x20 ADD PUSH0 KECCAK256 SLOAD PUSH2 0xF64 SWAP2 SWAP1 PUSH2 0x2365 JUMP JUMPDEST SWAP1 POP PUSH0 PUSH0 PUSH0 DUP5 DUP2 MSTORE PUSH1 0x20 ADD SWAP1 DUP2 MSTORE PUSH1 0x20 ADD PUSH0 KECCAK256 PUSH1 0x1 ADD DUP3 DUP2 SLOAD DUP2 LT PUSH2 0xF8C JUMPI PUSH2 0xF8B PUSH2 0x2795 JUMP JUMPDEST JUMPDEST SWAP1 PUSH0 MSTORE PUSH1 0x20 PUSH0 KECCAK256 SWAP1 PUSH1 0x3 MUL ADD SWAP1 POP DUP5 PUSH2 0xFA8 DUP3 PUSH1 0x2 ADD SLOAD PUSH2 0x18BD JUMP JUMPDEST PUSH2 0xFB5 DUP4 PUSH1 0x1 ADD SLOAD PUSH2 0x18BD JUMP JUMPDEST PUSH0 PUSH0 DUP8 DUP2 MSTORE PUSH1 0x20 ADD SWAP1 DUP2 MSTORE PUSH1 0x20 ADD PUSH0 KECCAK256 PUSH0 ADD PUSH1 0x40 MLOAD PUSH1 0x20 ADD PUSH2 0xFDA SWAP5 SWAP4 SWAP3 SWAP2 SWAP1 PUSH2 0x2E23 JUMP JUMPDEST PUSH1 0x40 MLOAD PUSH1 0x20 DUP2 DUP4 SUB SUB DUP2 MSTORE SWAP1 PUSH1 0x40 MSTORE SWAP5 POP POP POP POP DUP1 DUP1 PUSH1 0x1 ADD SWAP2 POP POP PUSH2 0xEA7 JUMP JUMPDEST POP DUP1 PUSH1 0x40 MLOAD PUSH1 0x20 ADD PUSH2 0x100D SWAP2 SWAP1 PUSH2 0x2EEF JUMP JUMPDEST PUSH1 0x40 MLOAD PUSH1 0x20 DUP2 DUP4 SUB SUB DUP2 MSTORE SWAP1 PUSH1 0x40 MSTORE SWAP1 POP PUSH0 PUSH1 0x5 PUSH0 DUP7 PUSH20 0xFFFFFFFFFFFFFFFFFFFFFFFFFFFFFFFFFFFFFFFF AND PUSH20 0xFFFFFFFFFFFFFFFFFFFFFFFFFFFFFFFFFFFFFFFF AND DUP2 MSTORE PUSH1 0x20 ADD SWAP1 DUP2 MSTORE PUSH1 0x20 ADD PUSH0 KECCAK256 DUP1 SLOAD SWAP1 POP SUB PUSH2 0x108C JUMPI DUP1 PUSH1 0x40 MLOAD PUSH1 0x20 ADD PUSH2 0x1076 SWAP2 SWAP1 PUSH2 0x2F49 JUMP JUMPDEST PUSH1 0x40 MLOAD PUSH1 0x20 DUP2 DUP4 SUB SUB DUP2 MSTORE SWAP1 PUSH1 0x40 MSTORE SWAP1 POP PUSH2 0x118A JUMP JUMPDEST PUSH0 PUSH0 SWAP1 POP JUMPDEST PUSH1 0x5 PUSH0 DUP7 PUSH20 0xFFFFFFFFFFFFFFFFFFFFFFFFFFFFFFFFFFFFFFFF AND PUSH20 0xFFFFFFFFFFFFFFFFFFFFFFFFFFFFFFFFFFFFFFFF AND DUP2 MSTORE PUSH1 0x20 ADD SWAP1 DUP2 MSTORE PUSH1 0x20 ADD PUSH0 KECCAK256 DUP1 SLOAD SWAP1 POP DUP2 LT ISZERO PUSH2 0x1188 JUMPI PUSH0 PUSH0 PUSH0 PUSH1 0x5 PUSH0 DUP10 PUSH20 0xFFFFFFFFFFFFFFFFFFFFFFFFFFFFFFFFFFFFFFFF AND PUSH20 0xFFFFFFFFFFFFFFFFFFFFFFFFFFFFFFFFFFFFFFFF AND DUP2 MSTORE PUSH1 0x20 ADD SWAP1 DUP2 MSTORE PUSH1 0x20 ADD PUSH0 KECCAK256 DUP5 DUP2 SLOAD DUP2 LT PUSH2 0x112B JUMPI PUSH2 0x112A PUSH2 0x2795 JUMP JUMPDEST JUMPDEST SWAP1 PUSH0 MSTORE PUSH1 0x20 PUSH0 KECCAK256 ADD SLOAD DUP2 MSTORE PUSH1 0x20 ADD SWAP1 DUP2 MSTORE PUSH1 0x20 ADD PUSH0 KECCAK256 SWAP1 POP DUP3 PUSH2 0x1154 DUP3 PUSH1 0x4 ADD PUSH1 0x1 ADD SLOAD PUSH2 0x18BD JUMP JUMPDEST DUP3 PUSH0 ADD PUSH1 0x40 MLOAD PUSH1 0x20 ADD PUSH2 0x1169 SWAP4 SWAP3 SWAP2 SWAP1 PUSH2 0x2FA3 JUMP JUMPDEST PUSH1 0x40 MLOAD PUSH1 0x20 DUP2 DUP4 SUB SUB DUP2 MSTORE SWAP1 PUSH1 0x40 MSTORE SWAP3 POP POP DUP1 DUP1 PUSH1 0x1 ADD SWAP2 POP POP PUSH2 0x1091 JUMP JUMPDEST POP JUMPDEST DUP1 SWAP3 POP POP POP SWAP2 SWAP1 POP JUMP JUMPDEST PUSH0 TIMESTAMP SWAP1 POP SWAP1 JUMP JUMPDEST PUSH2 0x4B0 DUP2 JUMP JUMPDEST PUSH0 CALLVALUE GT PUSH2 0x11E3 JUMPI PUSH1 0x40 MLOAD PUSH32 0x8C379A000000000000000000000000000000000000000000000000000000000 DUP2 MSTORE PUSH1 0x4 ADD PUSH2 0x11DA SWAP1 PUSH2 0x308E JUMP JUMPDEST PUSH1 0x40 MLOAD DUP1 SWAP2 SUB SWAP1 REVERT JUMPDEST PUSH2 0x11EC DUP2 PUSH2 0x1893 JUMP JUMPDEST DUP2 PUSH1 0x40 MLOAD PUSH1 0x20 ADD PUSH2 0x11FD SWAP2 SWAP1 PUSH2 0x22EE JUMP JUMPDEST PUSH1 0x40 MLOAD PUSH1 0x20 DUP2 DUP4 SUB SUB DUP2 MSTORE SWAP1 PUSH1 0x40 MSTORE SWAP1 PUSH2 0x124D JUMPI PUSH1 0x40 MLOAD PUSH32 0x8C379A000000000000000000000000000000000000000000000000000000000 DUP2 MSTORE PUSH1 0x4 ADD PUSH2 0x1244 SWAP2 SWAP1 PUSH2 0x2075 JUMP JUMPDEST PUSH1 0x40 MLOAD DUP1 SWAP2 SUB SWAP1 REVERT JUMPDEST POP PUSH0 PUSH1 0x1 PUSH1 0x2 DUP4 PUSH1 0x40 MLOAD PUSH2 0x1261 SWAP2 SWAP1 PUSH2 0x2322 JUMP JUMPDEST SWAP1 DUP2 MSTORE PUSH1 0x20 ADD PUSH1 0x40 MLOAD DUP1 SWAP2 SUB SWAP1 KECCAK256 SLOAD PUSH2 0x127A SWAP2 SWAP1 PUSH2 0x2365 JUMP JUMPDEST SWAP1 POP PUSH0 PUSH0 DUP3 DUP2 MSTORE PUSH1 0x20 ADD SWAP1 DUP2 MSTORE PUSH1 0x20 ADD PUSH0 KECCAK256 PUSH1 0x3 ADD SLOAD TIMESTAMP LT PUSH1 0x40 MLOAD PUSH1 0x20 ADD PUSH2 0x12A1 SWAP1 PUSH2 0x311C JUMP JUMPDEST PUSH1 0x40 MLOAD PUSH1 0x20 DUP2 DUP4 SUB SUB DUP2 MSTORE SWAP1 PUSH1 0x40 MSTORE SWAP1 PUSH2 0x12F1 JUMPI PUSH1 0x40 MLOAD PUSH32 0x8C379A000000000000000000000000000000000000000000000000000000000 DUP2 MSTORE PUSH1 0x4 ADD PUSH2 0x12E8 SWAP2 SWAP1 PUSH2 0x2075 JUMP JUMPDEST PUSH1 0x40 MLOAD DUP1 SWAP2 SUB SWAP1 REVERT JUMPDEST POP PUSH0 PUSH1 0x4 PUSH0 CALLER PUSH20 0xFFFFFFFFFFFFFFFFFFFFFFFFFFFFFFFFFFFFFFFF AND PUSH20 0xFFFFFFFFFFFFFFFFFFFFFFFFFFFFFFFFFFFFFFFF AND DUP2 MSTORE PUSH1 0x20 ADD SWAP1 DUP2 MSTORE PUSH1 0x20 ADD PUSH0 KECCAK256 PUSH0 DUP4 DUP2 MSTORE PUSH1 0x20 ADD SWAP1 DUP2 MSTORE PUSH1 0x20 ADD PUSH0 KECCAK256 SLOAD EQ PUSH1 0x40 MLOAD PUSH1 0x20 ADD PUSH2 0x1350 SWAP1 PUSH2 0x31C6 JUMP JUMPDEST PUSH1 0x40 MLOAD PUSH1 0x20 DUP2 DUP4 SUB SUB DUP2 MSTORE SWAP1 PUSH1 0x40 MSTORE SWAP1 PUSH2 0x13A0 JUMPI PUSH1 0x40 MLOAD PUSH32 0x8C379A000000000000000000000000000000000000000000000000000000000 DUP2 MSTORE PUSH1 0x4 ADD PUSH2 0x1397 SWAP2 SWAP1 PUSH2 0x2075 JUMP JUMPDEST PUSH1 0x40 MLOAD DUP1 SWAP2 SUB SWAP1 REVERT JUMPDEST POP PUSH0 PUSH0 DUP3 DUP2 MSTORE PUSH1 0x20 ADD SWAP1 DUP2 MSTORE PUSH1 0x20 ADD PUSH0 KECCAK256 PUSH1 0x1 ADD PUSH1 0x40 MLOAD DUP1 PUSH1 0x60 ADD PUSH1 0x40 MSTORE DUP1 CALLER PUSH20 0xFFFFFFFFFFFFFFFFFFFFFFFFFFFFFFFFFFFFFFFF AND DUP2 MSTORE PUSH1 0x20 ADD CALLVALUE DUP2 MSTORE PUSH1 0x20 ADD TIMESTAMP DUP2 MSTORE POP SWAP1 DUP1 PUSH1 0x1 DUP2 SLOAD ADD DUP1 DUP3 SSTORE DUP1 SWAP2 POP POP PUSH1 0x1 SWAP1 SUB SWAP1 PUSH0 MSTORE PUSH1 0x20 PUSH0 KECCAK256 SWAP1 PUSH1 0x3 MUL ADD PUSH0 SWAP1 SWAP2 SWAP1 SWAP2 SWAP1 SWAP2 POP PUSH0 DUP3 ADD MLOAD DUP2 PUSH0 ADD PUSH0 PUSH2 0x100 EXP DUP2 SLOAD DUP2 PUSH20 0xFFFFFFFFFFFFFFFFFFFFFFFFFFFFFFFFFFFFFFFF MUL NOT AND SWAP1 DUP4 PUSH20 0xFFFFFFFFFFFFFFFFFFFFFFFFFFFFFFFFFFFFFFFF AND MUL OR SWAP1 SSTORE POP PUSH1 0x20 DUP3 ADD MLOAD DUP2 PUSH1 0x1 ADD SSTORE PUSH1 0x40 DUP3 ADD MLOAD DUP2 PUSH1 0x2 ADD SSTORE POP POP CALLVALUE PUSH0 PUSH0 DUP4 DUP2 MSTORE PUSH1 0x20 ADD SWAP1 DUP2 MSTORE PUSH1 0x20 ADD PUSH0 KECCAK256 PUSH1 0x2 ADD PUSH0 DUP3 DUP3 SLOAD PUSH2 0x1487 SWAP2 SWAP1 PUSH2 0x2803 JUMP JUMPDEST SWAP3 POP POP DUP2 SWAP1 SSTORE POP PUSH1 0x3 PUSH0 CALLER PUSH20 0xFFFFFFFFFFFFFFFFFFFFFFFFFFFFFFFFFFFFFFFF AND PUSH20 0xFFFFFFFFFFFFFFFFFFFFFFFFFFFFFFFFFFFFFFFF AND DUP2 MSTORE PUSH1 0x20 ADD SWAP1 DUP2 MSTORE PUSH1 0x20 ADD PUSH0 KECCAK256 DUP2 SWAP1 DUP1 PUSH1 0x1 DUP2 SLOAD ADD DUP1 DUP3 SSTORE DUP1 SWAP2 POP POP PUSH1 0x1 SWAP1 SUB SWAP1 PUSH0 MSTORE PUSH1 0x20 PUSH0 KECCAK256 ADD PUSH0 SWAP1 SWAP2 SWAP1 SWAP2 SWAP1 SWAP2 POP SSTORE PUSH0 PUSH0 DUP3 DUP2 MSTORE PUSH1 0x20 ADD SWAP1 DUP2 MSTORE PUSH1 0x20 ADD PUSH0 KECCAK256 PUSH1 0x1 ADD DUP1 SLOAD SWAP1 POP PUSH1 0x4 PUSH0 CALLER PUSH20 0xFFFFFFFFFFFFFFFFFFFFFFFFFFFFFFFFFFFFFFFF AND PUSH20 0xFFFFFFFFFFFFFFFFFFFFFFFFFFFFFFFFFFFFFFFF AND DUP2 MSTORE PUSH1 0x20 ADD SWAP1 DUP2 MSTORE PUSH1 0x20 ADD PUSH0 KECCAK256 PUSH0 DUP4 DUP2 MSTORE PUSH1 0x20 ADD SWAP1 DUP2 MSTORE PUSH1 0x20 ADD PUSH0 KECCAK256 DUP2 SWAP1 SSTORE POP POP POP JUMP JUMPDEST PUSH1 0x6 PUSH0 SWAP1 SLOAD SWAP1 PUSH2 0x100 EXP SWAP1 DIV PUSH20 0xFFFFFFFFFFFFFFFFFFFFFFFFFFFFFFFFFFFFFFFF AND PUSH20 0xFFFFFFFFFFFFFFFFFFFFFFFFFFFFFFFFFFFFFFFF AND CALLER PUSH20 0xFFFFFFFFFFFFFFFFFFFFFFFFFFFFFFFFFFFFFFFF AND EQ PUSH2 0x15E9 JUMPI PUSH1 0x40 MLOAD PUSH32 0x8C379A000000000000000000000000000000000000000000000000000000000 DUP2 MSTORE PUSH1 0x4 ADD PUSH2 0x15E0 SWAP1 PUSH2 0x324A JUMP JUMPDEST PUSH1 0x40 MLOAD DUP1 SWAP2 SUB SWAP1 REVERT JUMPDEST PUSH1 0x7 SLOAD DUP3 GT ISZERO PUSH2 0x162E JUMPI PUSH1 0x40 MLOAD PUSH32 0x8C379A000000000000000000000000000000000000000000000000000000000 DUP2 MSTORE PUSH1 0x4 ADD PUSH2 0x1625 SWAP1 PUSH2 0x32B2 JUMP JUMPDEST PUSH1 0x40 MLOAD DUP1 SWAP2 SUB SWAP1 REVERT JUMPDEST DUP2 PUSH1 0x7 PUSH0 DUP3 DUP3 SLOAD PUSH2 0x163F SWAP2 SWAP1 PUSH2 0x2365 JUMP JUMPDEST SWAP3 POP POP DUP2 SWAP1 SSTORE POP PUSH0 DUP2 PUSH20 0xFFFFFFFFFFFFFFFFFFFFFFFFFFFFFFFFFFFFFFFF AND DUP4 PUSH1 0x40 MLOAD PUSH2 0x166B SWAP1 PUSH2 0x2863 JUMP JUMPDEST PUSH0 PUSH1 0x40 MLOAD DUP1 DUP4 SUB DUP2 DUP6 DUP8 GAS CALL SWAP3 POP POP POP RETURNDATASIZE DUP1 PUSH0 DUP2 EQ PUSH2 0x16A5 JUMPI PUSH1 0x40 MLOAD SWAP2 POP PUSH1 0x1F NOT PUSH1 0x3F RETURNDATASIZE ADD AND DUP3 ADD PUSH1 0x40 MSTORE RETURNDATASIZE DUP3 MSTORE RETURNDATASIZE PUSH0 PUSH1 0x20 DUP5 ADD RETURNDATACOPY PUSH2 0x16AA JUMP JUMPDEST PUSH1 0x60 SWAP2 POP JUMPDEST POP POP SWAP1 POP DUP1 PUSH2 0x16EE JUMPI PUSH1 0x40 MLOAD PUSH32 0x8C379A000000000000000000000000000000000000000000000000000000000 DUP2 MSTORE PUSH1 0x4 ADD PUSH2 0x16E5 SWAP1 PUSH2 0x3340 JUMP JUMPDEST PUSH1 0x40 MLOAD DUP1 SWAP2 SUB SWAP1 REVERT JUMPDEST POP POP POP JUMP JUMPDEST PUSH1 0x6 PUSH0 SWAP1 SLOAD SWAP1 PUSH2 0x100 EXP SWAP1 DIV PUSH20 0xFFFFFFFFFFFFFFFFFFFFFFFFFFFFFFFFFFFFFFFF AND PUSH20 0xFFFFFFFFFFFFFFFFFFFFFFFFFFFFFFFFFFFFFFFF AND CALLER PUSH20 0xFFFFFFFFFFFFFFFFFFFFFFFFFFFFFFFFFFFFFFFF AND EQ PUSH2 0x1782 JUMPI PUSH1 0x40 MLOAD PUSH32 0x8C379A000000000000000000000000000000000000000000000000000000000 DUP2 MSTORE PUSH1 0x4 ADD PUSH2 0x1779 SWAP1 PUSH2 0x33CE JUMP JUMPDEST PUSH1 0x40 MLOAD DUP1 SWAP2 SUB SWAP1 REVERT JUMPDEST PUSH1 0x6 PUSH0 SWAP1 SLOAD SWAP1 PUSH2 0x100 EXP SWAP1 DIV PUSH20 0xFFFFFFFFFFFFFFFFFFFFFFFFFFFFFFFFFFFFFFFF AND PUSH20 0xFFFFFFFFFFFFFFFFFFFFFFFFFFFFFFFFFFFFFFFF AND DUP2 PUSH20 0xFFFFFFFFFFFFFFFFFFFFFFFFFFFFFFFFFFFFFFFF AND SUB PUSH2 0x1811 JUMPI PUSH1 0x40 MLOAD PUSH32 0x8C379A000000000000000000000000000000000000000000000000000000000 DUP2 MSTORE PUSH1 0x4 ADD PUSH2 0x1808 SWAP1 PUSH2 0x3436 JUMP JUMPDEST PUSH1 0x40 MLOAD DUP1 SWAP2 SUB SWAP1 REVERT JUMPDEST DUP1 PUSH1 0x6 PUSH0 PUSH2 0x100 EXP DUP2 SLOAD DUP2 PUSH20 0xFFFFFFFFFFFFFFFFFFFFFFFFFFFFFFFFFFFFFFFF MUL NOT AND SWAP1 DUP4 PUSH20 0xFFFFFFFFFFFFFFFFFFFFFFFFFFFFFFFFFFFFFFFF AND MUL OR SWAP1 SSTORE POP POP JUMP JUMPDEST PUSH0 PUSH0 PUSH1 0x2 DUP4 PUSH1 0x40 MLOAD PUSH2 0x1866 SWAP2 SWAP1 PUSH2 0x2322 JUMP JUMPDEST SWAP1 DUP2 MSTORE PUSH1 0x20 ADD PUSH1 0x40 MLOAD DUP1 SWAP2 SUB SWAP1 KECCAK256 SLOAD EQ DUP1 ISZERO PUSH2 0x1883 JUMPI POP PUSH0 DUP3 MLOAD EQ ISZERO JUMPDEST SWAP1 POP SWAP2 SWAP1 POP JUMP JUMPDEST PUSH0 PUSH1 0x7 SLOAD SWAP1 POP SWAP1 JUMP JUMPDEST PUSH0 PUSH0 PUSH1 0x2 DUP4 PUSH1 0x40 MLOAD PUSH2 0x18A5 SWAP2 SWAP1 PUSH2 0x2322 JUMP JUMPDEST SWAP1 DUP2 MSTORE PUSH1 0x20 ADD PUSH1 0x40 MLOAD DUP1 SWAP2 SUB SWAP1 KECCAK256 SLOAD EQ ISZERO SWAP1 POP SWAP2 SWAP1 POP JUMP JUMPDEST PUSH1 0x60 PUSH0 PUSH1 0x1 PUSH2 0x18CB DUP5 PUSH2 0x1A59 JUMP JUMPDEST ADD SWAP1 POP PUSH0 DUP2 PUSH8 0xFFFFFFFFFFFFFFFF DUP2 GT ISZERO PUSH2 0x18E9 JUMPI PUSH2 0x18E8 PUSH2 0x1EAA JUMP JUMPDEST JUMPDEST PUSH1 0x40 MLOAD SWAP1 DUP1 DUP3 MSTORE DUP1 PUSH1 0x1F ADD PUSH1 0x1F NOT AND PUSH1 0x20 ADD DUP3 ADD PUSH1 0x40 MSTORE DUP1 ISZERO PUSH2 0x191B JUMPI DUP2 PUSH1 0x20 ADD PUSH1 0x1 DUP3 MUL DUP1 CALLDATASIZE DUP4 CALLDATACOPY DUP1 DUP3 ADD SWAP2 POP POP SWAP1 POP JUMPDEST POP SWAP1 POP PUSH0 DUP3 PUSH1 0x20 DUP4 ADD ADD SWAP1 POP JUMPDEST PUSH1 0x1 ISZERO PUSH2 0x197C JUMPI DUP1 DUP1 PUSH1 0x1 SWAP1 SUB SWAP2 POP POP PUSH32 0x3031323334353637383961626364656600000000000000000000000000000000 PUSH1 0xA DUP7 MOD BYTE DUP2 MSTORE8 PUSH1 0xA DUP6 DUP2 PUSH2 0x1971 JUMPI PUSH2 0x1970 PUSH2 0x3454 JUMP JUMPDEST JUMPDEST DIV SWAP5 POP PUSH0 DUP6 SUB PUSH2 0x1928 JUMPI JUMPDEST DUP2 SWAP4 POP POP POP POP SWAP2 SWAP1 POP JUMP JUMPDEST PUSH1 0x60 PUSH2 0x19AD DUP3 PUSH20 0xFFFFFFFFFFFFFFFFFFFFFFFFFFFFFFFFFFFFFFFF AND PUSH1 0x14 PUSH1 0xFF AND PUSH2 0x1BAA JUMP JUMPDEST SWAP1 POP SWAP2 SWAP1 POP JUMP JUMPDEST PUSH1 0x60 PUSH2 0x19CB DUP3 PUSH1 0x1 PUSH2 0x19C5 DUP6 PUSH2 0x1DE8 JUMP JUMPDEST ADD PUSH2 0x1BAA JUMP JUMPDEST SWAP1 POP SWAP2 SWAP1 POP JUMP JUMPDEST PUSH0 PUSH0 DUP3 GT PUSH2 0x1A15 JUMPI PUSH1 0x40 MLOAD PUSH32 0x8C379A000000000000000000000000000000000000000000000000000000000 DUP2 MSTORE PUSH1 0x4 ADD PUSH2 0x1A0C SWAP1 PUSH2 0x34CB JUMP JUMPDEST PUSH1 0x40 MLOAD DUP1 SWAP2 SUB SWAP1 REVERT JUMPDEST PUSH0 PREVRANDAO TIMESTAMP CALLER PUSH1 0x40 MLOAD PUSH1 0x20 ADD PUSH2 0x1A2B SWAP4 SWAP3 SWAP2 SWAP1 PUSH2 0x354E JUMP JUMPDEST PUSH1 0x40 MLOAD PUSH1 0x20 DUP2 DUP4 SUB SUB DUP2 MSTORE SWAP1 PUSH1 0x40 MSTORE DUP1 MLOAD SWAP1 PUSH1 0x20 ADD KECCAK256 PUSH0 SHR SWAP1 POP DUP3 DUP2 PUSH2 0x1A51 SWAP2 SWAP1 PUSH2 0x358A JUMP JUMPDEST SWAP2 POP POP SWAP2 SWAP1 POP JUMP JUMPDEST PUSH0 PUSH0 PUSH0 SWAP1 POP PUSH27 0x184F03E93FF9F4DAA797ED6E38ED64BF6A1F010000000000000000 DUP4 LT PUSH2 0x1AB5 JUMPI PUSH27 0x184F03E93FF9F4DAA797ED6E38ED64BF6A1F010000000000000000 DUP4 DUP2 PUSH2 0x1AAB JUMPI PUSH2 0x1AAA PUSH2 0x3454 JUMP JUMPDEST JUMPDEST DIV SWAP3 POP PUSH1 0x40 DUP2 ADD SWAP1 POP JUMPDEST PUSH14 0x4EE2D6D415B85ACEF8100000000 DUP4 LT PUSH2 0x1AF2 JUMPI PUSH14 0x4EE2D6D415B85ACEF8100000000 DUP4 DUP2 PUSH2 0x1AE8 JUMPI PUSH2 0x1AE7 PUSH2 0x3454 JUMP JUMPDEST JUMPDEST DIV SWAP3 POP PUSH1 0x20 DUP2 ADD SWAP1 POP JUMPDEST PUSH7 0x2386F26FC10000 DUP4 LT PUSH2 0x1B21 JUMPI PUSH7 0x2386F26FC10000 DUP4 DUP2 PUSH2 0x1B17 JUMPI PUSH2 0x1B16 PUSH2 0x3454 JUMP JUMPDEST JUMPDEST DIV SWAP3 POP PUSH1 0x10 DUP2 ADD SWAP1 POP JUMPDEST PUSH4 0x5F5E100 DUP4 LT PUSH2 0x1B4A JUMPI PUSH4 0x5F5E100 DUP4 DUP2 PUSH2 0x1B40 JUMPI PUSH2 0x1B3F PUSH2 0x3454 JUMP JUMPDEST JUMPDEST DIV SWAP3 POP PUSH1 0x8 DUP2 ADD SWAP1 POP JUMPDEST PUSH2 0x2710 DUP4 LT PUSH2 0x1B6F JUMPI PUSH2 0x2710 DUP4 DUP2 PUSH2 0x1B65 JUMPI PUSH2 0x1B64 PUSH2 0x3454 JUMP JUMPDEST JUMPDEST DIV SWAP3 POP PUSH1 0x4 DUP2 ADD SWAP1 POP JUMPDEST PUSH1 0x64 DUP4 LT PUSH2 0x1B92 JUMPI PUSH1 0x64 DUP4 DUP2 PUSH2 0x1B88 JUMPI PUSH2 0x1B87 PUSH2 0x3454 JUMP JUMPDEST JUMPDEST DIV SWAP3 POP PUSH1 0x2 DUP2 ADD SWAP1 POP JUMPDEST PUSH1 0xA DUP4 LT PUSH2 0x1BA1 JUMPI PUSH1 0x1 DUP2 ADD SWAP1 POP JUMPDEST DUP1 SWAP2 POP POP SWAP2 SWAP1 POP JUMP JUMPDEST PUSH1 0x60 PUSH0 DUP4 SWAP1 POP PUSH0 PUSH1 0x2 DUP5 PUSH1 0x2 PUSH2 0x1BC0 SWAP2 SWAP1 PUSH2 0x27C2 JUMP JUMPDEST PUSH2 0x1BCA SWAP2 SWAP1 PUSH2 0x2803 JUMP JUMPDEST PUSH8 0xFFFFFFFFFFFFFFFF DUP2 GT ISZERO PUSH2 0x1BE3 JUMPI PUSH2 0x1BE2 PUSH2 0x1EAA JUMP JUMPDEST JUMPDEST PUSH1 0x40 MLOAD SWAP1 DUP1 DUP3 MSTORE DUP1 PUSH1 0x1F ADD PUSH1 0x1F NOT AND PUSH1 0x20 ADD DUP3 ADD PUSH1 0x40 MSTORE DUP1 ISZERO PUSH2 0x1C15 JUMPI DUP2 PUSH1 0x20 ADD PUSH1 0x1 DUP3 MUL DUP1 CALLDATASIZE DUP4 CALLDATACOPY DUP1 DUP3 ADD SWAP2 POP POP SWAP1 POP JUMPDEST POP SWAP1 POP PUSH32 0x3000000000000000000000000000000000000000000000000000000000000000 DUP2 PUSH0 DUP2 MLOAD DUP2 LT PUSH2 0x1C4C JUMPI PUSH2 0x1C4B PUSH2 0x2795 JUMP JUMPDEST JUMPDEST PUSH1 0x20 ADD ADD SWAP1 PUSH31 0xFFFFFFFFFFFFFFFFFFFFFFFFFFFFFFFFFFFFFFFFFFFFFFFFFFFFFFFFFFFFFF NOT AND SWAP1 DUP2 PUSH0 BYTE SWAP1 MSTORE8 POP PUSH32 0x7800000000000000000000000000000000000000000000000000000000000000 DUP2 PUSH1 0x1 DUP2 MLOAD DUP2 LT PUSH2 0x1CAF JUMPI PUSH2 0x1CAE PUSH2 0x2795 JUMP JUMPDEST JUMPDEST PUSH1 0x20 ADD ADD SWAP1 PUSH31 0xFFFFFFFFFFFFFFFFFFFFFFFFFFFFFFFFFFFFFFFFFFFFFFFFFFFFFFFFFFFFFF NOT AND SWAP1 DUP2 PUSH0 BYTE SWAP1 MSTORE8 POP PUSH0 PUSH1 0x1 DUP6 PUSH1 0x2 PUSH2 0x1CED SWAP2 SWAP1 PUSH2 0x27C2 JUMP JUMPDEST PUSH2 0x1CF7 SWAP2 SWAP1 PUSH2 0x2803 JUMP JUMPDEST SWAP1 POP JUMPDEST PUSH1 0x1 DUP2 GT ISZERO PUSH2 0x1D96 JUMPI PUSH32 0x3031323334353637383961626364656600000000000000000000000000000000 PUSH1 0xF DUP5 AND PUSH1 0x10 DUP2 LT PUSH2 0x1D39 JUMPI PUSH2 0x1D38 PUSH2 0x2795 JUMP JUMPDEST JUMPDEST BYTE PUSH1 0xF8 SHL DUP3 DUP3 DUP2 MLOAD DUP2 LT PUSH2 0x1D50 JUMPI PUSH2 0x1D4F PUSH2 0x2795 JUMP JUMPDEST JUMPDEST PUSH1 0x20 ADD ADD SWAP1 PUSH31 0xFFFFFFFFFFFFFFFFFFFFFFFFFFFFFFFFFFFFFFFFFFFFFFFFFFFFFFFFFFFFFF NOT AND SWAP1 DUP2 PUSH0 BYTE SWAP1 MSTORE8 POP PUSH1 0x4 DUP4 SWAP1 SHR SWAP3 POP DUP1 PUSH2 0x1D8F SWAP1 PUSH2 0x35BA JUMP JUMPDEST SWAP1 POP PUSH2 0x1CFA JUMP JUMPDEST POP PUSH0 DUP3 EQ PUSH2 0x1DDD JUMPI DUP5 DUP5 PUSH1 0x40 MLOAD PUSH32 0xE22E27EB00000000000000000000000000000000000000000000000000000000 DUP2 MSTORE PUSH1 0x4 ADD PUSH2 0x1DD4 SWAP3 SWAP2 SWAP1 PUSH2 0x35E1 JUMP JUMPDEST PUSH1 0x40 MLOAD DUP1 SWAP2 SUB SWAP1 REVERT JUMPDEST DUP1 SWAP3 POP POP POP SWAP3 SWAP2 POP POP JUMP JUMPDEST PUSH0 PUSH1 0x7 PUSH2 0x1E06 PUSH16 0xFFFFFFFFFFFFFFFFFFFFFFFFFFFFFFFF DUP5 GT PUSH2 0x1E76 JUMP JUMPDEST SWAP1 SHL SWAP1 POP PUSH1 0x6 PUSH2 0x1E22 PUSH8 0xFFFFFFFFFFFFFFFF DUP4 DUP6 SWAP1 SHR GT PUSH2 0x1E76 JUMP JUMPDEST SWAP1 SHL DUP2 OR SWAP1 POP PUSH1 0x5 PUSH2 0x1E3C PUSH4 0xFFFFFFFF DUP4 DUP6 SWAP1 SHR GT PUSH2 0x1E76 JUMP JUMPDEST SWAP1 SHL DUP2 OR SWAP1 POP PUSH1 0x4 PUSH2 0x1E54 PUSH2 0xFFFF DUP4 DUP6 SWAP1 SHR GT PUSH2 0x1E76 JUMP JUMPDEST SWAP1 SHL DUP2 OR SWAP1 POP PUSH2 0x1E69 PUSH1 0xFF DUP3 DUP5 SWAP1 SHR GT PUSH2 0x1E76 JUMP JUMPDEST PUSH1 0x3 DUP3 SWAP1 SHR OR SWAP1 POP SWAP2 SWAP1 POP JUMP JUMPDEST PUSH0 DUP2 ISZERO ISZERO SWAP1 POP SWAP2 SWAP1 POP JUMP JUMPDEST PUSH0 PUSH1 0x40 MLOAD SWAP1 POP SWAP1 JUMP JUMPDEST PUSH0 PUSH0 REVERT JUMPDEST PUSH0 PUSH0 REVERT JUMPDEST PUSH0 PUSH0 REVERT JUMPDEST PUSH0 PUSH0 REVERT JUMPDEST PUSH0 PUSH1 0x1F NOT PUSH1 0x1F DUP4 ADD AND SWAP1 POP SWAP2 SWAP1 POP JUMP JUMPDEST PUSH32 0x4E487B7100000000000000000000000000000000000000000000000000000000 PUSH0 MSTORE PUSH1 0x41 PUSH1 0x4 MSTORE PUSH1 0x24 PUSH0 REVERT JUMPDEST PUSH2 0x1EE0 DUP3 PUSH2 0x1E9A JUMP JUMPDEST DUP2 ADD DUP2 DUP2 LT PUSH8 0xFFFFFFFFFFFFFFFF DUP3 GT OR ISZERO PUSH2 0x1EFF JUMPI PUSH2 0x1EFE PUSH2 0x1EAA JUMP JUMPDEST JUMPDEST DUP1 PUSH1 0x40 MSTORE POP POP POP JUMP JUMPDEST PUSH0 PUSH2 0x1F11 PUSH2 0x1E81 JUMP JUMPDEST SWAP1 POP PUSH2 0x1F1D DUP3 DUP3 PUSH2 0x1ED7 JUMP JUMPDEST SWAP2 SWAP1 POP JUMP JUMPDEST PUSH0 PUSH8 0xFFFFFFFFFFFFFFFF DUP3 GT ISZERO PUSH2 0x1F3C JUMPI PUSH2 0x1F3B PUSH2 0x1EAA JUMP JUMPDEST JUMPDEST PUSH2 0x1F45 DUP3 PUSH2 0x1E9A JUMP JUMPDEST SWAP1 POP PUSH1 0x20 DUP2 ADD SWAP1 POP SWAP2 SWAP1 POP JUMP JUMPDEST DUP3 DUP2 DUP4 CALLDATACOPY PUSH0 DUP4 DUP4 ADD MSTORE POP POP POP JUMP JUMPDEST PUSH0 PUSH2 0x1F72 PUSH2 0x1F6D DUP5 PUSH2 0x1F22 JUMP JUMPDEST PUSH2 0x1F08 JUMP JUMPDEST SWAP1 POP DUP3 DUP2 MSTORE PUSH1 0x20 DUP2 ADD DUP5 DUP5 DUP5 ADD GT ISZERO PUSH2 0x1F8E JUMPI PUSH2 0x1F8D PUSH2 0x1E96 JUMP JUMPDEST JUMPDEST PUSH2 0x1F99 DUP5 DUP3 DUP6 PUSH2 0x1F52 JUMP JUMPDEST POP SWAP4 SWAP3 POP POP POP JUMP JUMPDEST PUSH0 DUP3 PUSH1 0x1F DUP4 ADD SLT PUSH2 0x1FB5 JUMPI PUSH2 0x1FB4 PUSH2 0x1E92 JUMP JUMPDEST JUMPDEST DUP2 CALLDATALOAD PUSH2 0x1FC5 DUP5 DUP3 PUSH1 0x20 DUP7 ADD PUSH2 0x1F60 JUMP JUMPDEST SWAP2 POP POP SWAP3 SWAP2 POP POP JUMP JUMPDEST PUSH0 PUSH1 0x20 DUP3 DUP5 SUB SLT ISZERO PUSH2 0x1FE3 JUMPI PUSH2 0x1FE2 PUSH2 0x1E8A JUMP JUMPDEST JUMPDEST PUSH0 DUP3 ADD CALLDATALOAD PUSH8 0xFFFFFFFFFFFFFFFF DUP2 GT ISZERO PUSH2 0x2000 JUMPI PUSH2 0x1FFF PUSH2 0x1E8E JUMP JUMPDEST JUMPDEST PUSH2 0x200C DUP5 DUP3 DUP6 ADD PUSH2 0x1FA1 JUMP JUMPDEST SWAP2 POP POP SWAP3 SWAP2 POP POP JUMP JUMPDEST PUSH0 DUP2 MLOAD SWAP1 POP SWAP2 SWAP1 POP JUMP JUMPDEST PUSH0 DUP3 DUP3 MSTORE PUSH1 0x20 DUP3 ADD SWAP1 POP SWAP3 SWAP2 POP POP JUMP JUMPDEST DUP3 DUP2 DUP4 MCOPY PUSH0 DUP4 DUP4 ADD MSTORE POP POP POP JUMP JUMPDEST PUSH0 PUSH2 0x2047 DUP3 PUSH2 0x2015 JUMP JUMPDEST PUSH2 0x2051 DUP2 DUP6 PUSH2 0x201F JUMP JUMPDEST SWAP4 POP PUSH2 0x2061 DUP2 DUP6 PUSH1 0x20 DUP7 ADD PUSH2 0x202F JUMP JUMPDEST PUSH2 0x206A DUP2 PUSH2 0x1E9A JUMP JUMPDEST DUP5 ADD SWAP2 POP POP SWAP3 SWAP2 POP POP JUMP JUMPDEST PUSH0 PUSH1 0x20 DUP3 ADD SWAP1 POP DUP2 DUP2 SUB PUSH0 DUP4 ADD MSTORE PUSH2 0x208D DUP2 DUP5 PUSH2 0x203D JUMP JUMPDEST SWAP1 POP SWAP3 SWAP2 POP POP JUMP JUMPDEST PUSH0 PUSH20 0xFFFFFFFFFFFFFFFFFFFFFFFFFFFFFFFFFFFFFFFF DUP3 AND SWAP1 POP SWAP2 SWAP1 POP JUMP JUMPDEST PUSH0 PUSH2 0x20BE DUP3 PUSH2 0x2095 JUMP JUMPDEST SWAP1 POP SWAP2 SWAP1 POP JUMP JUMPDEST PUSH2 0x20CE DUP2 PUSH2 0x20B4 JUMP JUMPDEST DUP3 MSTORE POP POP JUMP JUMPDEST PUSH0 PUSH1 0x20 DUP3 ADD SWAP1 POP PUSH2 0x20E7 PUSH0 DUP4 ADD DUP5 PUSH2 0x20C5 JUMP JUMPDEST SWAP3 SWAP2 POP POP JUMP JUMPDEST PUSH0 DUP2 SWAP1 POP SWAP2 SWAP1 POP JUMP JUMPDEST PUSH2 0x20FF DUP2 PUSH2 0x20ED JUMP JUMPDEST DUP2 EQ PUSH2 0x2109 JUMPI PUSH0 PUSH0 REVERT JUMPDEST POP JUMP JUMPDEST PUSH0 DUP2 CALLDATALOAD SWAP1 POP PUSH2 0x211A DUP2 PUSH2 0x20F6 JUMP JUMPDEST SWAP3 SWAP2 POP POP JUMP JUMPDEST PUSH0 PUSH0 PUSH1 0x40 DUP4 DUP6 SUB SLT ISZERO PUSH2 0x2136 JUMPI PUSH2 0x2135 PUSH2 0x1E8A JUMP JUMPDEST JUMPDEST PUSH0 DUP4 ADD CALLDATALOAD PUSH8 0xFFFFFFFFFFFFFFFF DUP2 GT ISZERO PUSH2 0x2153 JUMPI PUSH2 0x2152 PUSH2 0x1E8E JUMP JUMPDEST JUMPDEST PUSH2 0x215F DUP6 DUP3 DUP7 ADD PUSH2 0x1FA1 JUMP JUMPDEST SWAP3 POP POP PUSH1 0x20 PUSH2 0x2170 DUP6 DUP3 DUP7 ADD PUSH2 0x210C JUMP JUMPDEST SWAP2 POP POP SWAP3 POP SWAP3 SWAP1 POP JUMP JUMPDEST PUSH2 0x2183 DUP2 PUSH2 0x20B4 JUMP JUMPDEST DUP2 EQ PUSH2 0x218D JUMPI PUSH0 PUSH0 REVERT JUMPDEST POP JUMP JUMPDEST PUSH0 DUP2 CALLDATALOAD SWAP1 POP PUSH2 0x219E DUP2 PUSH2 0x217A JUMP JUMPDEST SWAP3 SWAP2 POP POP JUMP JUMPDEST PUSH0 PUSH1 0x20 DUP3 DUP5 SUB SLT ISZERO PUSH2 0x21B9 JUMPI PUSH2 0x21B8 PUSH2 0x1E8A JUMP JUMPDEST JUMPDEST PUSH0 PUSH2 0x21C6 DUP5 DUP3 DUP6 ADD PUSH2 0x2190 JUMP JUMPDEST SWAP2 POP POP SWAP3 SWAP2 POP POP JUMP JUMPDEST PUSH2 0x21D8 DUP2 PUSH2 0x20ED JUMP JUMPDEST DUP3 MSTORE POP POP JUMP JUMPDEST PUSH0 PUSH1 0x20 DUP3 ADD SWAP1 POP PUSH2 0x21F1 PUSH0 DUP4 ADD DUP5 PUSH2 0x21CF JUMP JUMPDEST SWAP3 SWAP2 POP POP JUMP JUMPDEST PUSH0 PUSH0 PUSH1 0x40 DUP4 DUP6 SUB SLT ISZERO PUSH2 0x220D JUMPI PUSH2 0x220C PUSH2 0x1E8A JUMP JUMPDEST JUMPDEST PUSH0 PUSH2 0x221A DUP6 DUP3 DUP7 ADD PUSH2 0x210C JUMP JUMPDEST SWAP3 POP POP PUSH1 0x20 PUSH2 0x222B DUP6 DUP3 DUP7 ADD PUSH2 0x2190 JUMP JUMPDEST SWAP2 POP POP SWAP3 POP SWAP3 SWAP1 POP JUMP JUMPDEST PUSH0 DUP2 ISZERO ISZERO SWAP1 POP SWAP2 SWAP1 POP JUMP JUMPDEST PUSH2 0x2249 DUP2 PUSH2 0x2235 JUMP JUMPDEST DUP3 MSTORE POP POP JUMP JUMPDEST PUSH0 PUSH1 0x20 DUP3 ADD SWAP1 POP PUSH2 0x2262 PUSH0 DUP4 ADD DUP5 PUSH2 0x2240 JUMP JUMPDEST SWAP3 SWAP2 POP POP JUMP JUMPDEST PUSH32 0x4C6F74746572792077697468206E616D65200000000000000000000000000000 DUP2 MSTORE POP JUMP JUMPDEST PUSH0 DUP2 SWAP1 POP SWAP3 SWAP2 POP POP JUMP JUMPDEST PUSH0 PUSH2 0x22A2 DUP3 PUSH2 0x2015 JUMP JUMPDEST PUSH2 0x22AC DUP2 DUP6 PUSH2 0x228E JUMP JUMPDEST SWAP4 POP PUSH2 0x22BC DUP2 DUP6 PUSH1 0x20 DUP7 ADD PUSH2 0x202F JUMP JUMPDEST DUP1 DUP5 ADD SWAP2 POP POP SWAP3 SWAP2 POP POP JUMP JUMPDEST PUSH32 0x20646F6573206E6F742065786973740000000000000000000000000000000000 DUP2 MSTORE POP JUMP JUMPDEST PUSH0 PUSH2 0x22F8 DUP3 PUSH2 0x2268 JUMP JUMPDEST PUSH1 0x12 DUP3 ADD SWAP2 POP PUSH2 0x2308 DUP3 DUP5 PUSH2 0x2298 JUMP JUMPDEST SWAP2 POP PUSH2 0x2313 DUP3 PUSH2 0x22C8 JUMP JUMPDEST PUSH1 0xF DUP3 ADD SWAP2 POP DUP2 SWAP1 POP SWAP3 SWAP2 POP POP JUMP JUMPDEST PUSH0 PUSH2 0x232D DUP3 DUP5 PUSH2 0x2298 JUMP JUMPDEST SWAP2 POP DUP2 SWAP1 POP SWAP3 SWAP2 POP POP JUMP JUMPDEST PUSH32 0x4E487B7100000000000000000000000000000000000000000000000000000000 PUSH0 MSTORE PUSH1 0x11 PUSH1 0x4 MSTORE PUSH1 0x24 PUSH0 REVERT JUMPDEST PUSH0 PUSH2 0x236F DUP3 PUSH2 0x20ED JUMP JUMPDEST SWAP2 POP PUSH2 0x237A DUP4 PUSH2 0x20ED JUMP JUMPDEST SWAP3 POP DUP3 DUP3 SUB SWAP1 POP DUP2 DUP2 GT ISZERO PUSH2 0x2392 JUMPI PUSH2 0x2391 PUSH2 0x2338 JUMP JUMPDEST JUMPDEST SWAP3 SWAP2 POP POP JUMP JUMPDEST PUSH32 0x4E616D653A200000000000000000000000000000000000000000000000000000 DUP2 MSTORE POP JUMP JUMPDEST PUSH32 0x4E487B7100000000000000000000000000000000000000000000000000000000 PUSH0 MSTORE PUSH1 0x22 PUSH1 0x4 MSTORE PUSH1 0x24 PUSH0 REVERT JUMPDEST PUSH0 PUSH1 0x2 DUP3 DIV SWAP1 POP PUSH1 0x1 DUP3 AND DUP1 PUSH2 0x2402 JUMPI PUSH1 0x7F DUP3 AND SWAP2 POP JUMPDEST PUSH1 0x20 DUP3 LT DUP2 SUB PUSH2 0x2415 JUMPI PUSH2 0x2414 PUSH2 0x23BE JUMP JUMPDEST JUMPDEST POP SWAP2 SWAP1 POP JUMP JUMPDEST PUSH0 DUP2 SWAP1 POP DUP2 PUSH0 MSTORE PUSH1 0x20 PUSH0 KECCAK256 SWAP1 POP SWAP2 SWAP1 POP JUMP JUMPDEST PUSH0 DUP2 SLOAD PUSH2 0x2439 DUP2 PUSH2 0x23EB JUMP JUMPDEST PUSH2 0x2443 DUP2 DUP7 PUSH2 0x228E JUMP JUMPDEST SWAP5 POP PUSH1 0x1 DUP3 AND PUSH0 DUP2 EQ PUSH2 0x245D JUMPI PUSH1 0x1 DUP2 EQ PUSH2 0x2472 JUMPI PUSH2 0x24A4 JUMP JUMPDEST PUSH1 0xFF NOT DUP4 AND DUP7 MSTORE DUP2 ISZERO ISZERO DUP3 MUL DUP7 ADD SWAP4 POP PUSH2 0x24A4 JUMP JUMPDEST PUSH2 0x247B DUP6 PUSH2 0x241B JUMP JUMPDEST PUSH0 JUMPDEST DUP4 DUP2 LT ISZERO PUSH2 0x249C JUMPI DUP2 SLOAD DUP2 DUP10 ADD MSTORE PUSH1 0x1 DUP3 ADD SWAP2 POP PUSH1 0x20 DUP2 ADD SWAP1 POP PUSH2 0x247D JUMP JUMPDEST DUP4 DUP9 ADD SWAP6 POP POP POP JUMPDEST POP POP POP SWAP3 SWAP2 POP POP JUMP JUMPDEST PUSH32 0x20202D2D20200000000000000000000000000000000000000000000000000000 DUP2 MSTORE POP JUMP JUMPDEST PUSH32 0x56616C75653A2000000000000000000000000000000000000000000000000000 DUP2 MSTORE POP JUMP JUMPDEST PUSH0 PUSH2 0x2503 DUP3 PUSH2 0x2398 JUMP JUMPDEST PUSH1 0x6 DUP3 ADD SWAP2 POP PUSH2 0x2513 DUP3 DUP6 PUSH2 0x242D JUMP JUMPDEST SWAP2 POP PUSH2 0x251E DUP3 PUSH2 0x24AD JUMP JUMPDEST PUSH1 0x6 DUP3 ADD SWAP2 POP PUSH2 0x252D DUP3 PUSH2 0x24D3 JUMP JUMPDEST PUSH1 0x7 DUP3 ADD SWAP2 POP PUSH2 0x253D DUP3 DUP5 PUSH2 0x2298 JUMP JUMPDEST SWAP2 POP DUP2 SWAP1 POP SWAP4 SWAP3 POP POP POP JUMP JUMPDEST PUSH32 0x526573756C745F456C69676962696C6974795F54696D657374616D703A000000 DUP2 MSTORE POP JUMP JUMPDEST PUSH0 PUSH2 0x257A DUP3 DUP6 PUSH2 0x2298 JUMP JUMPDEST SWAP2 POP PUSH2 0x2585 DUP3 PUSH2 0x24AD JUMP JUMPDEST PUSH1 0x6 DUP3 ADD SWAP2 POP PUSH2 0x2594 DUP3 PUSH2 0x2549 JUMP JUMPDEST PUSH1 0x1D DUP3 ADD SWAP2 POP PUSH2 0x25A4 DUP3 DUP5 PUSH2 0x2298 JUMP JUMPDEST SWAP2 POP DUP2 SWAP1 POP SWAP4 SWAP3 POP POP POP JUMP JUMPDEST PUSH32 0x57696E6E65723A00000000000000000000000000000000000000000000000000 DUP2 MSTORE POP JUMP JUMPDEST PUSH32 0x57696E6E696E675F416D6F756E743A0000000000000000000000000000000000 DUP2 MSTORE POP JUMP JUMPDEST PUSH32 0x526573756C745F4465636C617265645F41745F54696D657374616D7000000000 DUP2 MSTORE POP JUMP JUMPDEST PUSH0 PUSH2 0x262D DUP3 DUP8 PUSH2 0x2298 JUMP JUMPDEST SWAP2 POP PUSH2 0x2638 DUP3 PUSH2 0x24AD JUMP JUMPDEST PUSH1 0x6 DUP3 ADD SWAP2 POP PUSH2 0x2647 DUP3 PUSH2 0x25B0 JUMP JUMPDEST PUSH1 0x7 DUP3 ADD SWAP2 POP PUSH2 0x2657 DUP3 DUP7 PUSH2 0x2298 JUMP JUMPDEST SWAP2 POP PUSH2 0x2662 DUP3 PUSH2 0x24AD JUMP JUMPDEST PUSH1 0x6 DUP3 ADD SWAP2 POP PUSH2 0x2671 DUP3 PUSH2 0x25D6 JUMP JUMPDEST PUSH1 0xF DUP3 ADD SWAP2 POP PUSH2 0x2681 DUP3 DUP6 PUSH2 0x2298 JUMP JUMPDEST SWAP2 POP PUSH2 0x268C DUP3 PUSH2 0x24AD JUMP JUMPDEST PUSH1 0x6 DUP3 ADD SWAP2 POP PUSH2 0x269B DUP3 PUSH2 0x25FC JUMP JUMPDEST PUSH1 0x1C DUP3 ADD SWAP2 POP PUSH2 0x26AB DUP3 DUP5 PUSH2 0x2298 JUMP JUMPDEST SWAP2 POP DUP2 SWAP1 POP SWAP6 SWAP5 POP POP POP POP POP JUMP JUMPDEST PUSH32 0x57696E6E657220616C7265616479206465636C6172656420746F206265200000 DUP2 MSTORE POP JUMP JUMPDEST PUSH0 PUSH2 0x26E9 DUP3 PUSH2 0x26B9 JUMP JUMPDEST PUSH1 0x1E DUP3 ADD SWAP2 POP PUSH2 0x26F9 DUP3 DUP5 PUSH2 0x2298 JUMP JUMPDEST SWAP2 POP DUP2 SWAP1 POP SWAP3 SWAP2 POP POP JUMP JUMPDEST PUSH32 0x4E6F7420616C6C6F77656420746F206465636C6172652077696E6E6572206265 PUSH0 DUP3 ADD MSTORE PUSH32 0x666F72652074696D657374616D70200000000000000000000000000000000000 PUSH1 0x20 DUP3 ADD MSTORE POP JUMP JUMPDEST PUSH0 PUSH2 0x275E PUSH1 0x2F DUP4 PUSH2 0x228E JUMP JUMPDEST SWAP2 POP PUSH2 0x2769 DUP3 PUSH2 0x2704 JUMP JUMPDEST PUSH1 0x2F DUP3 ADD SWAP1 POP SWAP2 SWAP1 POP JUMP JUMPDEST PUSH0 PUSH2 0x277E DUP3 PUSH2 0x2752 JUMP JUMPDEST SWAP2 POP PUSH2 0x278A DUP3 DUP5 PUSH2 0x2298 JUMP JUMPDEST SWAP2 POP DUP2 SWAP1 POP SWAP3 SWAP2 POP POP JUMP JUMPDEST PUSH32 0x4E487B7100000000000000000000000000000000000000000000000000000000 PUSH0 MSTORE PUSH1 0x32 PUSH1 0x4 MSTORE PUSH1 0x24 PUSH0 REVERT JUMPDEST PUSH0 PUSH2 0x27CC DUP3 PUSH2 0x20ED JUMP JUMPDEST SWAP2 POP PUSH2 0x27D7 DUP4 PUSH2 0x20ED JUMP JUMPDEST SWAP3 POP DUP3 DUP3 MUL PUSH2 0x27E5 DUP2 PUSH2 0x20ED JUMP JUMPDEST SWAP2 POP DUP3 DUP3 DIV DUP5 EQ DUP4 ISZERO OR PUSH2 0x27FC JUMPI PUSH2 0x27FB PUSH2 0x2338 JUMP JUMPDEST JUMPDEST POP SWAP3 SWAP2 POP POP JUMP JUMPDEST PUSH0 PUSH2 0x280D DUP3 PUSH2 0x20ED JUMP JUMPDEST SWAP2 POP PUSH2 0x2818 DUP4 PUSH2 0x20ED JUMP JUMPDEST SWAP3 POP DUP3 DUP3 ADD SWAP1 POP DUP1 DUP3 GT ISZERO PUSH2 0x2830 JUMPI PUSH2 0x282F PUSH2 0x2338 JUMP JUMPDEST JUMPDEST SWAP3 SWAP2 POP POP JUMP JUMPDEST PUSH0 DUP2 SWAP1 POP SWAP3 SWAP2 POP POP JUMP JUMPDEST POP JUMP JUMPDEST PUSH0 PUSH2 0x284E PUSH0 DUP4 PUSH2 0x2836 JUMP JUMPDEST SWAP2 POP PUSH2 0x2859 DUP3 PUSH2 0x2840 JUMP JUMPDEST PUSH0 DUP3 ADD SWAP1 POP SWAP2 SWAP1 POP JUMP JUMPDEST PUSH0 PUSH2 0x286D DUP3 PUSH2 0x2843 JUMP JUMPDEST SWAP2 POP DUP2 SWAP1 POP SWAP2 SWAP1 POP JUMP JUMPDEST PUSH32 0x4661696C656420746F2073656E64207468652077696E6E696E6720616D6F756E PUSH0 DUP3 ADD MSTORE PUSH32 0x7420746F2057696E6E65722D4164647265737300000000000000000000000000 PUSH1 0x20 DUP3 ADD MSTORE POP JUMP JUMPDEST PUSH0 PUSH2 0x28D1 PUSH1 0x33 DUP4 PUSH2 0x201F JUMP JUMPDEST SWAP2 POP PUSH2 0x28DC DUP3 PUSH2 0x2877 JUMP JUMPDEST PUSH1 0x40 DUP3 ADD SWAP1 POP SWAP2 SWAP1 POP JUMP JUMPDEST PUSH0 PUSH1 0x20 DUP3 ADD SWAP1 POP DUP2 DUP2 SUB PUSH0 DUP4 ADD MSTORE PUSH2 0x28FE DUP2 PUSH2 0x28C5 JUMP JUMPDEST SWAP1 POP SWAP2 SWAP1 POP JUMP JUMPDEST PUSH32 0x506C656173652063686F6F7365206120756E6971756520286E6F6E2D656D7074 PUSH0 DUP3 ADD MSTORE PUSH32 0x7929206E616D6520666F7220746865206C6F7474657279000000000000000000 PUSH1 0x20 DUP3 ADD MSTORE POP JUMP JUMPDEST PUSH0 PUSH2 0x295F PUSH1 0x37 DUP4 PUSH2 0x201F JUMP JUMPDEST SWAP2 POP PUSH2 0x296A DUP3 PUSH2 0x2905 JUMP JUMPDEST PUSH1 0x40 DUP3 ADD SWAP1 POP SWAP2 SWAP1 POP JUMP JUMPDEST PUSH0 PUSH1 0x20 DUP3 ADD SWAP1 POP DUP2 DUP2 SUB PUSH0 DUP4 ADD MSTORE PUSH2 0x298C DUP2 PUSH2 0x2953 JUMP JUMPDEST SWAP1 POP SWAP2 SWAP1 POP JUMP JUMPDEST PUSH32 0x526573756C742D456C69676962696C6974792D54696D657374616D70206D7573 PUSH0 DUP3 ADD MSTORE PUSH32 0x742062652061746C656173742000000000000000000000000000000000000000 PUSH1 0x20 DUP3 ADD MSTORE POP JUMP JUMPDEST PUSH0 PUSH2 0x29ED PUSH1 0x2D DUP4 PUSH2 0x228E JUMP JUMPDEST SWAP2 POP PUSH2 0x29F8 DUP3 PUSH2 0x2993 JUMP JUMPDEST PUSH1 0x2D DUP3 ADD SWAP1 POP SWAP2 SWAP1 POP JUMP JUMPDEST PUSH32 0x207365636F6E647320696E20746865206675747572652E000000000000000000 DUP2 MSTORE POP JUMP JUMPDEST PUSH0 PUSH2 0x2A33 DUP3 PUSH2 0x29E1 JUMP JUMPDEST SWAP2 POP PUSH2 0x2A3F DUP3 DUP5 PUSH2 0x2298 JUMP JUMPDEST SWAP2 POP PUSH2 0x2A4A DUP3 PUSH2 0x2A03 JUMP JUMPDEST PUSH1 0x17 DUP3 ADD SWAP2 POP DUP2 SWAP1 POP SWAP3 SWAP2 POP POP JUMP JUMPDEST PUSH0 PUSH1 0x20 PUSH1 0x1F DUP4 ADD DIV SWAP1 POP SWAP2 SWAP1 POP JUMP JUMPDEST PUSH0 DUP3 DUP3 SHL SWAP1 POP SWAP3 SWAP2 POP POP JUMP JUMPDEST PUSH0 PUSH1 0x8 DUP4 MUL PUSH2 0x2AA3 PUSH32 0xFFFFFFFFFFFFFFFFFFFFFFFFFFFFFFFFFFFFFFFFFFFFFFFFFFFFFFFFFFFFFFFF DUP3 PUSH2 0x2A68 JUMP JUMPDEST PUSH2 0x2AAD DUP7 DUP4 PUSH2 0x2A68 JUMP JUMPDEST SWAP6 POP DUP1 NOT DUP5 AND SWAP4 POP DUP1 DUP7 AND DUP5 OR SWAP3 POP POP POP SWAP4 SWAP3 POP POP POP JUMP JUMPDEST PUSH0 DUP2 SWAP1 POP SWAP2 SWAP1 POP JUMP JUMPDEST PUSH0 PUSH2 0x2AE8 PUSH2 0x2AE3 PUSH2 0x2ADE DUP5 PUSH2 0x20ED JUMP JUMPDEST PUSH2 0x2AC5 JUMP JUMPDEST PUSH2 0x20ED JUMP JUMPDEST SWAP1 POP SWAP2 SWAP1 POP JUMP JUMPDEST PUSH0 DUP2 SWAP1 POP SWAP2 SWAP1 POP JUMP JUMPDEST PUSH2 0x2B01 DUP4 PUSH2 0x2ACE JUMP JUMPDEST PUSH2 0x2B15 PUSH2 0x2B0D DUP3 PUSH2 0x2AEF JUMP JUMPDEST DUP5 DUP5 SLOAD PUSH2 0x2A74 JUMP JUMPDEST DUP3 SSTORE POP POP POP POP JUMP JUMPDEST PUSH0 PUSH0 SWAP1 POP SWAP1 JUMP JUMPDEST PUSH2 0x2B2C PUSH2 0x2B1D JUMP JUMPDEST PUSH2 0x2B37 DUP2 DUP5 DUP5 PUSH2 0x2AF8 JUMP JUMPDEST POP POP POP JUMP JUMPDEST JUMPDEST DUP2 DUP2 LT ISZERO PUSH2 0x2B5A JUMPI PUSH2 0x2B4F PUSH0 DUP3 PUSH2 0x2B24 JUMP JUMPDEST PUSH1 0x1 DUP2 ADD SWAP1 POP PUSH2 0x2B3D JUMP JUMPDEST POP POP JUMP JUMPDEST PUSH1 0x1F DUP3 GT ISZERO PUSH2 0x2B9F JUMPI PUSH2 0x2B70 DUP2 PUSH2 0x241B JUMP JUMPDEST PUSH2 0x2B79 DUP5 PUSH2 0x2A59 JUMP JUMPDEST DUP2 ADD PUSH1 0x20 DUP6 LT ISZERO PUSH2 0x2B88 JUMPI DUP2 SWAP1 POP JUMPDEST PUSH2 0x2B9C PUSH2 0x2B94 DUP6 PUSH2 0x2A59 JUMP JUMPDEST DUP4 ADD DUP3 PUSH2 0x2B3C JUMP JUMPDEST POP POP JUMPDEST POP POP POP JUMP JUMPDEST PUSH0 DUP3 DUP3 SHR SWAP1 POP SWAP3 SWAP2 POP POP JUMP JUMPDEST PUSH0 PUSH2 0x2BBF PUSH0 NOT DUP5 PUSH1 0x8 MUL PUSH2 0x2BA4 JUMP JUMPDEST NOT DUP1 DUP4 AND SWAP2 POP POP SWAP3 SWAP2 POP POP JUMP JUMPDEST PUSH0 PUSH2 0x2BD7 DUP4 DUP4 PUSH2 0x2BB0 JUMP JUMPDEST SWAP2 POP DUP3 PUSH1 0x2 MUL DUP3 OR SWAP1 POP SWAP3 SWAP2 POP POP JUMP JUMPDEST PUSH2 0x2BF0 DUP3 PUSH2 0x2015 JUMP JUMPDEST PUSH8 0xFFFFFFFFFFFFFFFF DUP2 GT ISZERO PUSH2 0x2C09 JUMPI PUSH2 0x2C08 PUSH2 0x1EAA JUMP JUMPDEST JUMPDEST PUSH2 0x2C13 DUP3 SLOAD PUSH2 0x23EB JUMP JUMPDEST PUSH2 0x2C1E DUP3 DUP3 DUP6 PUSH2 0x2B5E JUMP JUMPDEST PUSH0 PUSH1 0x20 SWAP1 POP PUSH1 0x1F DUP4 GT PUSH1 0x1 DUP2 EQ PUSH2 0x2C4F JUMPI PUSH0 DUP5 ISZERO PUSH2 0x2C3D JUMPI DUP3 DUP8 ADD MLOAD SWAP1 POP JUMPDEST PUSH2 0x2C47 DUP6 DUP3 PUSH2 0x2BCC JUMP JUMPDEST DUP7 SSTORE POP PUSH2 0x2CAE JUMP JUMPDEST PUSH1 0x1F NOT DUP5 AND PUSH2 0x2C5D DUP7 PUSH2 0x241B JUMP JUMPDEST PUSH0 JUMPDEST DUP3 DUP2 LT ISZERO PUSH2 0x2C84 JUMPI DUP5 DUP10 ADD MLOAD DUP3 SSTORE PUSH1 0x1 DUP3 ADD SWAP2 POP PUSH1 0x20 DUP6 ADD SWAP5 POP PUSH1 0x20 DUP2 ADD SWAP1 POP PUSH2 0x2C5F JUMP JUMPDEST DUP7 DUP4 LT ISZERO PUSH2 0x2CA1 JUMPI DUP5 DUP10 ADD MLOAD PUSH2 0x2C9D PUSH1 0x1F DUP10 AND DUP3 PUSH2 0x2BB0 JUMP JUMPDEST DUP4 SSTORE POP JUMPDEST PUSH1 0x1 PUSH1 0x2 DUP9 MUL ADD DUP9 SSTORE POP POP POP JUMPDEST POP POP POP POP POP POP JUMP JUMPDEST PUSH0 PUSH2 0x2CC0 DUP3 PUSH2 0x20ED JUMP JUMPDEST SWAP2 POP PUSH32 0xFFFFFFFFFFFFFFFFFFFFFFFFFFFFFFFFFFFFFFFFFFFFFFFFFFFFFFFFFFFFFFFF DUP3 SUB PUSH2 0x2CF2 JUMPI PUSH2 0x2CF1 PUSH2 0x2338 JUMP JUMPDEST JUMPDEST PUSH1 0x1 DUP3 ADD SWAP1 POP SWAP2 SWAP1 POP JUMP JUMPDEST PUSH32 0x5061727469636970616E7420686173206E6F20686973746F7279000000000000 PUSH0 DUP3 ADD MSTORE POP JUMP JUMPDEST PUSH0 PUSH2 0x2D31 PUSH1 0x1A DUP4 PUSH2 0x201F JUMP JUMPDEST SWAP2 POP PUSH2 0x2D3C DUP3 PUSH2 0x2CFD JUMP JUMPDEST PUSH1 0x20 DUP3 ADD SWAP1 POP SWAP2 SWAP1 POP JUMP JUMPDEST PUSH0 PUSH1 0x20 DUP3 ADD SWAP1 POP DUP2 DUP2 SUB PUSH0 DUP4 ADD MSTORE PUSH2 0x2D5E DUP2 PUSH2 0x2D25 JUMP JUMPDEST SWAP1 POP SWAP2 SWAP1 POP JUMP JUMPDEST PUSH32 0x20203C2054696D657374616D70203D2000000000000000000000000000000000 DUP2 MSTORE POP JUMP JUMPDEST PUSH32 0x2C20000000000000000000000000000000000000000000000000000000000000 DUP2 MSTORE POP JUMP JUMPDEST PUSH32 0x416D6F756E74203D200000000000000000000000000000000000000000000000 DUP2 MSTORE POP JUMP JUMPDEST PUSH32 0x4C6F7474657279203D2000000000000000000000000000000000000000000000 DUP2 MSTORE POP JUMP JUMPDEST PUSH32 0x203E000000000000000000000000000000000000000000000000000000000000 DUP2 MSTORE POP JUMP JUMPDEST PUSH0 PUSH2 0x2E2E DUP3 DUP8 PUSH2 0x2298 JUMP JUMPDEST SWAP2 POP PUSH2 0x2E39 DUP3 PUSH2 0x24AD JUMP JUMPDEST PUSH1 0x6 DUP3 ADD SWAP2 POP PUSH2 0x2E48 DUP3 PUSH2 0x2D65 JUMP JUMPDEST PUSH1 0x10 DUP3 ADD SWAP2 POP PUSH2 0x2E58 DUP3 DUP7 PUSH2 0x2298 JUMP JUMPDEST SWAP2 POP PUSH2 0x2E63 DUP3 PUSH2 0x2D8B JUMP JUMPDEST PUSH1 0x2 DUP3 ADD SWAP2 POP PUSH2 0x2E72 DUP3 PUSH2 0x2DB1 JUMP JUMPDEST PUSH1 0x9 DUP3 ADD SWAP2 POP PUSH2 0x2E82 DUP3 DUP6 PUSH2 0x2298 JUMP JUMPDEST SWAP2 POP PUSH2 0x2E8D DUP3 PUSH2 0x2D8B JUMP JUMPDEST PUSH1 0x2 DUP3 ADD SWAP2 POP PUSH2 0x2E9C DUP3 PUSH2 0x2DD7 JUMP JUMPDEST PUSH1 0xA DUP3 ADD SWAP2 POP PUSH2 0x2EAC DUP3 DUP5 PUSH2 0x242D JUMP JUMPDEST SWAP2 POP PUSH2 0x2EB7 DUP3 PUSH2 0x2DFD JUMP JUMPDEST PUSH1 0x2 DUP3 ADD SWAP2 POP DUP2 SWAP1 POP SWAP6 SWAP5 POP POP POP POP POP JUMP JUMPDEST PUSH32 0x57696E6E696E675F486973746F72793A00000000000000000000000000000000 DUP2 MSTORE POP JUMP JUMPDEST PUSH0 PUSH2 0x2EFA DUP3 DUP5 PUSH2 0x2298 JUMP JUMPDEST SWAP2 POP PUSH2 0x2F05 DUP3 PUSH2 0x24AD JUMP JUMPDEST PUSH1 0x6 DUP3 ADD SWAP2 POP PUSH2 0x2F14 DUP3 PUSH2 0x2EC9 JUMP JUMPDEST PUSH1 0x10 DUP3 ADD SWAP2 POP DUP2 SWAP1 POP SWAP3 SWAP2 POP POP JUMP JUMPDEST PUSH32 0x20204E6F6E650000000000000000000000000000000000000000000000000000 DUP2 MSTORE POP JUMP JUMPDEST PUSH0 PUSH2 0x2F54 DUP3 DUP5 PUSH2 0x2298 JUMP JUMPDEST SWAP2 POP PUSH2 0x2F5F DUP3 PUSH2 0x24AD JUMP JUMPDEST PUSH1 0x6 DUP3 ADD SWAP2 POP PUSH2 0x2F6E DUP3 PUSH2 0x2F23 JUMP JUMPDEST PUSH1 0x6 DUP3 ADD SWAP2 POP DUP2 SWAP1 POP SWAP3 SWAP2 POP POP JUMP JUMPDEST PUSH32 0x20203C2057696E6E696E6720416D6F756E74203D200000000000000000000000 DUP2 MSTORE POP JUMP JUMPDEST PUSH0 PUSH2 0x2FAE DUP3 DUP7 PUSH2 0x2298 JUMP JUMPDEST SWAP2 POP PUSH2 0x2FB9 DUP3 PUSH2 0x24AD JUMP JUMPDEST PUSH1 0x6 DUP3 ADD SWAP2 POP PUSH2 0x2FC8 DUP3 PUSH2 0x2F7D JUMP JUMPDEST PUSH1 0x15 DUP3 ADD SWAP2 POP PUSH2 0x2FD8 DUP3 DUP6 PUSH2 0x2298 JUMP JUMPDEST SWAP2 POP PUSH2 0x2FE3 DUP3 PUSH2 0x2D8B JUMP JUMPDEST PUSH1 0x2 DUP3 ADD SWAP2 POP PUSH2 0x2FF2 DUP3 PUSH2 0x2DD7 JUMP JUMPDEST PUSH1 0xA DUP3 ADD SWAP2 POP PUSH2 0x3002 DUP3 DUP5 PUSH2 0x242D JUMP JUMPDEST SWAP2 POP PUSH2 0x300D DUP3 PUSH2 0x2DFD JUMP JUMPDEST PUSH1 0x2 DUP3 ADD SWAP2 POP DUP2 SWAP1 POP SWAP5 SWAP4 POP POP POP POP JUMP JUMPDEST PUSH32 0x5061727469636970616E74277320636F6E747269627574696F6E206D75737420 PUSH0 DUP3 ADD MSTORE PUSH32 0x626520706F736974697665000000000000000000000000000000000000000000 PUSH1 0x20 DUP3 ADD MSTORE POP JUMP JUMPDEST PUSH0 PUSH2 0x3078 PUSH1 0x2B DUP4 PUSH2 0x201F JUMP JUMPDEST SWAP2 POP PUSH2 0x3083 DUP3 PUSH2 0x301E JUMP JUMPDEST PUSH1 0x40 DUP3 ADD SWAP1 POP SWAP2 SWAP1 POP JUMP JUMPDEST PUSH0 PUSH1 0x20 DUP3 ADD SWAP1 POP DUP2 DUP2 SUB PUSH0 DUP4 ADD MSTORE PUSH2 0x30A5 DUP2 PUSH2 0x306C JUMP JUMPDEST SWAP1 POP SWAP2 SWAP1 POP JUMP JUMPDEST PUSH32 0x4D69737365642074686520646561646C696E6520746F20706172746963697061 PUSH0 DUP3 ADD MSTORE PUSH32 0x746520696E204C6F747465727900000000000000000000000000000000000000 PUSH1 0x20 DUP3 ADD MSTORE POP JUMP JUMPDEST PUSH0 PUSH2 0x3106 PUSH1 0x2D DUP4 PUSH2 0x228E JUMP JUMPDEST SWAP2 POP PUSH2 0x3111 DUP3 PUSH2 0x30AC JUMP JUMPDEST PUSH1 0x2D DUP3 ADD SWAP1 POP SWAP2 SWAP1 POP JUMP JUMPDEST PUSH0 PUSH2 0x3126 DUP3 PUSH2 0x30FA JUMP JUMPDEST SWAP2 POP DUP2 SWAP1 POP SWAP2 SWAP1 POP JUMP JUMPDEST PUSH32 0x5468652073656E6465722068616420616C726561647920706172746963697061 PUSH0 DUP3 ADD MSTORE PUSH32 0x74656420696E2074686973206C6F747465727920286E6F7420616C6C6F776564 PUSH1 0x20 DUP3 ADD MSTORE PUSH32 0x206D6F7265207468616E206F6E63652900000000000000000000000000000000 PUSH1 0x40 DUP3 ADD MSTORE POP JUMP JUMPDEST PUSH0 PUSH2 0x31B0 PUSH1 0x50 DUP4 PUSH2 0x228E JUMP JUMPDEST SWAP2 POP PUSH2 0x31BB DUP3 PUSH2 0x3130 JUMP JUMPDEST PUSH1 0x50 DUP3 ADD SWAP1 POP SWAP2 SWAP1 POP JUMP JUMPDEST PUSH0 PUSH2 0x31D0 DUP3 PUSH2 0x31A4 JUMP JUMPDEST SWAP2 POP DUP2 SWAP1 POP SWAP2 SWAP1 POP JUMP JUMPDEST PUSH32 0x4F6E6C79206F776E657220697320616C6C6F77656420746F207370656E642074 PUSH0 DUP3 ADD MSTORE PUSH32 0x68652070726F6669747300000000000000000000000000000000000000000000 PUSH1 0x20 DUP3 ADD MSTORE POP JUMP JUMPDEST PUSH0 PUSH2 0x3234 PUSH1 0x2A DUP4 PUSH2 0x201F JUMP JUMPDEST SWAP2 POP PUSH2 0x323F DUP3 PUSH2 0x31DA JUMP JUMPDEST PUSH1 0x40 DUP3 ADD SWAP1 POP SWAP2 SWAP1 POP JUMP JUMPDEST PUSH0 PUSH1 0x20 DUP3 ADD SWAP1 POP DUP2 DUP2 SUB PUSH0 DUP4 ADD MSTORE PUSH2 0x3261 DUP2 PUSH2 0x3228 JUMP JUMPDEST SWAP1 POP SWAP2 SWAP1 POP JUMP JUMPDEST PUSH32 0x4E6F7420656E6F7567682070726F66697473206C65667420746F207370656E64 PUSH0 DUP3 ADD MSTORE POP JUMP JUMPDEST PUSH0 PUSH2 0x329C PUSH1 0x20 DUP4 PUSH2 0x201F JUMP JUMPDEST SWAP2 POP PUSH2 0x32A7 DUP3 PUSH2 0x3268 JUMP JUMPDEST PUSH1 0x20 DUP3 ADD SWAP1 POP SWAP2 SWAP1 POP JUMP JUMPDEST PUSH0 PUSH1 0x20 DUP3 ADD SWAP1 POP DUP2 DUP2 SUB PUSH0 DUP4 ADD MSTORE PUSH2 0x32C9 DUP2 PUSH2 0x3290 JUMP JUMPDEST SWAP1 POP SWAP2 SWAP1 POP JUMP JUMPDEST PUSH32 0x4661696C656420746F2073656E6420616D6F756E7420746F2072656369706965 PUSH0 DUP3 ADD MSTORE PUSH32 0x6E74000000000000000000000000000000000000000000000000000000000000 PUSH1 0x20 DUP3 ADD MSTORE POP JUMP JUMPDEST PUSH0 PUSH2 0x332A PUSH1 0x22 DUP4 PUSH2 0x201F JUMP JUMPDEST SWAP2 POP PUSH2 0x3335 DUP3 PUSH2 0x32D0 JUMP JUMPDEST PUSH1 0x40 DUP3 ADD SWAP1 POP SWAP2 SWAP1 POP JUMP JUMPDEST PUSH0 PUSH1 0x20 DUP3 ADD SWAP1 POP DUP2 DUP2 SUB PUSH0 DUP4 ADD MSTORE PUSH2 0x3357 DUP2 PUSH2 0x331E JUMP JUMPDEST SWAP1 POP SWAP2 SWAP1 POP JUMP JUMPDEST PUSH32 0x4F6E6C79206F776E657220697320616C6C6F77656420746F206D616B65207468 PUSH0 DUP3 ADD MSTORE PUSH32 0x6973206368616E67650000000000000000000000000000000000000000000000 PUSH1 0x20 DUP3 ADD MSTORE POP JUMP JUMPDEST PUSH0 PUSH2 0x33B8 PUSH1 0x29 DUP4 PUSH2 0x201F JUMP JUMPDEST SWAP2 POP PUSH2 0x33C3 DUP3 PUSH2 0x335E JUMP JUMPDEST PUSH1 0x40 DUP3 ADD SWAP1 POP SWAP2 SWAP1 POP JUMP JUMPDEST PUSH0 PUSH1 0x20 DUP3 ADD SWAP1 POP DUP2 DUP2 SUB PUSH0 DUP4 ADD MSTORE PUSH2 0x33E5 DUP2 PUSH2 0x33AC JUMP JUMPDEST SWAP1 POP SWAP2 SWAP1 POP JUMP JUMPDEST PUSH32 0x506C656173652070726F76696465206120646966666572656E74206F776E6572 PUSH0 DUP3 ADD MSTORE POP JUMP JUMPDEST PUSH0 PUSH2 0x3420 PUSH1 0x20 DUP4 PUSH2 0x201F JUMP JUMPDEST SWAP2 POP PUSH2 0x342B DUP3 PUSH2 0x33EC JUMP JUMPDEST PUSH1 0x20 DUP3 ADD SWAP1 POP SWAP2 SWAP1 POP JUMP JUMPDEST PUSH0 PUSH1 0x20 DUP3 ADD SWAP1 POP DUP2 DUP2 SUB PUSH0 DUP4 ADD MSTORE PUSH2 0x344D DUP2 PUSH2 0x3414 JUMP JUMPDEST SWAP1 POP SWAP2 SWAP1 POP JUMP JUMPDEST PUSH32 0x4E487B7100000000000000000000000000000000000000000000000000000000 PUSH0 MSTORE PUSH1 0x12 PUSH1 0x4 MSTORE PUSH1 0x24 PUSH0 REVERT JUMPDEST PUSH32 0x4D6178206D7573742062652067726561746572207468616E2030000000000000 PUSH0 DUP3 ADD MSTORE POP JUMP JUMPDEST PUSH0 PUSH2 0x34B5 PUSH1 0x1A DUP4 PUSH2 0x201F JUMP JUMPDEST SWAP2 POP PUSH2 0x34C0 DUP3 PUSH2 0x3481 JUMP JUMPDEST PUSH1 0x20 DUP3 ADD SWAP1 POP SWAP2 SWAP1 POP JUMP JUMPDEST PUSH0 PUSH1 0x20 DUP3 ADD SWAP1 POP DUP2 DUP2 SUB PUSH0 DUP4 ADD MSTORE PUSH2 0x34E2 DUP2 PUSH2 0x34A9 JUMP JUMPDEST SWAP1 POP SWAP2 SWAP1 POP JUMP JUMPDEST PUSH0 DUP2 SWAP1 POP SWAP2 SWAP1 POP JUMP JUMPDEST PUSH2 0x3503 PUSH2 0x34FE DUP3 PUSH2 0x20ED JUMP JUMPDEST PUSH2 0x34E9 JUMP JUMPDEST DUP3 MSTORE POP POP JUMP JUMPDEST PUSH0 DUP2 PUSH1 0x60 SHL SWAP1 POP SWAP2 SWAP1 POP JUMP JUMPDEST PUSH0 PUSH2 0x351F DUP3 PUSH2 0x3509 JUMP JUMPDEST SWAP1 POP SWAP2 SWAP1 POP JUMP JUMPDEST PUSH0 PUSH2 0x3530 DUP3 PUSH2 0x3515 JUMP JUMPDEST SWAP1 POP SWAP2 SWAP1 POP JUMP JUMPDEST PUSH2 0x3548 PUSH2 0x3543 DUP3 PUSH2 0x20B4 JUMP JUMPDEST PUSH2 0x3526 JUMP JUMPDEST DUP3 MSTORE POP POP JUMP JUMPDEST PUSH0 PUSH2 0x3559 DUP3 DUP7 PUSH2 0x34F2 JUMP JUMPDEST PUSH1 0x20 DUP3 ADD SWAP2 POP PUSH2 0x3569 DUP3 DUP6 PUSH2 0x34F2 JUMP JUMPDEST PUSH1 0x20 DUP3 ADD SWAP2 POP PUSH2 0x3579 DUP3 DUP5 PUSH2 0x3537 JUMP JUMPDEST PUSH1 0x14 DUP3 ADD SWAP2 POP DUP2 SWAP1 POP SWAP5 SWAP4 POP POP POP POP JUMP JUMPDEST PUSH0 PUSH2 0x3594 DUP3 PUSH2 0x20ED JUMP JUMPDEST SWAP2 POP PUSH2 0x359F DUP4 PUSH2 0x20ED JUMP JUMPDEST SWAP3 POP DUP3 PUSH2 0x35AF JUMPI PUSH2 0x35AE PUSH2 0x3454 JUMP JUMPDEST JUMPDEST DUP3 DUP3 MOD SWAP1 POP SWAP3 SWAP2 POP POP JUMP JUMPDEST PUSH0 PUSH2 0x35C4 DUP3 PUSH2 0x20ED JUMP JUMPDEST SWAP2 POP PUSH0 DUP3 SUB PUSH2 0x35D6 JUMPI PUSH2 0x35D5 PUSH2 0x2338 JUMP JUMPDEST JUMPDEST PUSH1 0x1 DUP3 SUB SWAP1 POP SWAP2 SWAP1 POP JUMP JUMPDEST PUSH0 PUSH1 0x40 DUP3 ADD SWAP1 POP PUSH2 0x35F4 PUSH0 DUP4 ADD DUP6 PUSH2 0x21CF JUMP JUMPDEST PUSH2 0x3601 PUSH1 0x20 DUP4 ADD DUP5 PUSH2 0x21CF JUMP JUMPDEST SWAP4 SWAP3 POP POP POP JUMP INVALID LOG2 PUSH5 0x6970667358 0x22 SLT KECCAK256 DUP5 0xDD PUSH3 0xBA9494 0xDA 0xBB OR KECCAK256 SWAP14 0xB3 DUP1 SAR 0x4C DUP10 GASPRICE DUP9 SWAP9 DUP3 PUSH20 0x29FEA3BDBD4BB56D1156EB64736F6C634300081E STOP CALLER "
		},
		"gasEstimates": {
			"creation": {
				"codeDepositCost": "2777200",
				"executionCost": "37311",
				"totalCost": "2814511"
			},
			"external": {
				"": "217",
				"MIN_RESULT_DECLARATION_TIMESTAMP_DIFF()": "325",
				"addLottery(string,uint256)": "infinite",
				"changeOwner(address)": "29120",
				"checkProfits()": "2542",
				"declareLotteryResults(string)": "infinite",
				"getBlockTimestamp()": "442",
				"getLotteryInfo(string)": "infinite",
				"getOrDeclareLotteryWinner(string)": "infinite",
				"getParticipantHistory(address)": "infinite",
				"isLotteryNameAvailable(string)": "infinite",
				"participateInLottery(string)": "infinite",
				"spendProfits(uint256,address)": "infinite"
			},
			"internal": {
				"_doesLotteryExist(string memory)": "infinite",
				"_getRandomNumber(uint256)": "infinite"
			}
		},
		"methodIdentifiers": {
			"MIN_RESULT_DECLARATION_TIMESTAMP_DIFF()": "7efeb94a",
			"addLottery(string,uint256)": "2cfc4311",
			"changeOwner(address)": "a6f9dae1",
			"checkProfits()": "d7a8e87b",
			"declareLotteryResults(string)": "2303ecf7",
			"getBlockTimestamp()": "796b89b9",
			"getLotteryInfo(string)": "12571f63",
			"getOrDeclareLotteryWinner(string)": "4cf7c741",
			"getParticipantHistory(address)": "78a03c47",
			"isLotteryNameAvailable(string)": "bafdb1c0",
			"participateInLottery(string)": "9696e830",
			"spendProfits(uint256,address)": "a5d10abb"
		}
	},
	"abi": [
		{
			"inputs": [],
			"stateMutability": "nonpayable",
			"type": "constructor"
		},
		{
			"inputs": [
				{
					"internalType": "uint256",
					"name": "value",
					"type": "uint256"
				},
				{
					"internalType": "uint256",
					"name": "length",
					"type": "uint256"
				}
			],
			"name": "StringsInsufficientHexLength",
			"type": "error"
		},
		{
			"stateMutability": "payable",
			"type": "fallback"
		},
		{
			"inputs": [],
			"name": "MIN_RESULT_DECLARATION_TIMESTAMP_DIFF",
			"outputs": [
				{
					"internalType": "uint256",
					"name": "",
					"type": "uint256"
				}
			],
			"stateMutability": "view",
			"type": "function"
		},
		{
			"inputs": [
				{
					"internalType": "string",
					"name": "name",
					"type": "string"
				},
				{
					"internalType": "uint256",
					"name": "resultEligibilityTimestamp",
					"type": "uint256"
				}
			],
			"name": "addLottery",
			"outputs": [],
			"stateMutability": "payable",
			"type": "function"
		},
		{
			"inputs": [
				{
					"internalType": "address",
					"name": "newOwner",
					"type": "address"
				}
			],
			"name": "changeOwner",
			"outputs": [],
			"stateMutability": "nonpayable",
			"type": "function"
		},
		{
			"inputs": [],
			"name": "checkProfits",
			"outputs": [
				{
					"internalType": "uint256",
					"name": "",
					"type": "uint256"
				}
			],
			"stateMutability": "view",
			"type": "function"
		},
		{
			"inputs": [
				{
					"internalType": "string",
					"name": "name",
					"type": "string"
				}
			],
			"name": "declareLotteryResults",
			"outputs": [
				{
					"internalType": "address",
					"name": "",
					"type": "address"
				}
			],
			"stateMutability": "nonpayable",
			"type": "function"
		},
		{
			"inputs": [],
			"name": "getBlockTimestamp",
			"outputs": [
				{
					"internalType": "uint256",
					"name": "",
					"type": "uint256"
				}
			],
			"stateMutability": "view",
			"type": "function"
		},
		{
			"inputs": [
				{
					"internalType": "string",
					"name": "name",
					"type": "string"
				}
			],
			"name": "getLotteryInfo",
			"outputs": [
				{
					"internalType": "string",
					"name": "",
					"type": "string"
				}
			],
			"stateMutability": "nonpayable",
			"type": "function"
		},
		{
			"inputs": [
				{
					"internalType": "string",
					"name": "name",
					"type": "string"
				}
			],
			"name": "getOrDeclareLotteryWinner",
			"outputs": [
				{
					"internalType": "address",
					"name": "",
					"type": "address"
				}
			],
			"stateMutability": "nonpayable",
			"type": "function"
		},
		{
			"inputs": [
				{
					"internalType": "address",
					"name": "participant",
					"type": "address"
				}
			],
			"name": "getParticipantHistory",
			"outputs": [
				{
					"internalType": "string",
					"name": "",
					"type": "string"
				}
			],
			"stateMutability": "view",
			"type": "function"
		},
		{
			"inputs": [
				{
					"internalType": "string",
					"name": "name",
					"type": "string"
				}
			],
			"name": "isLotteryNameAvailable",
			"outputs": [
				{
					"internalType": "bool",
					"name": "",
					"type": "bool"
				}
			],
			"stateMutability": "view",
			"type": "function"
		},
		{
			"inputs": [
				{
					"internalType": "string",
					"name": "name",
					"type": "string"
				}
			],
			"name": "participateInLottery",
			"outputs": [],
			"stateMutability": "payable",
			"type": "function"
		},
		{
			"inputs": [
				{
					"internalType": "uint256",
					"name": "amount",
					"type": "uint256"
				},
				{
					"internalType": "address",
					"name": "recipient",
					"type": "address"
				}
			],
			"name": "spendProfits",
			"outputs": [],
			"stateMutability": "nonpayable",
			"type": "function"
		},
		{
			"stateMutability": "payable",
			"type": "receive"
		}
	]
}